:020000040800F2
:1000000000000220C91D0008DD050008DF0500080A
:10001000E1050008E3050008E50500080000000010
:10002000000000000000000000000000E7050008DC
:10003000E905000800000000EB050008ED050008D8
:10004000191E0008191E0008191E0008191E0008B4
:10005000191E0008191E0008191E0008191E0008A4
:10006000191E0008191E0008191E0008191E000894
:10007000F5050008191E0008191E0008191E0008C1
:10008000191E0008191E0008191E0008191E000874
:10009000191E0008191E0008191E0008191E000864
:1000A000191E0008191E0008191E0008191E000854
:1000B000191E0008191E0008191E0008191E000844
:1000C000191E0008191E0008191E0008191E000834
:1000D000191E0008191E0008191E00080506000850
:1000E000191E0008191E0008191E0008191E000814
:1000F000191E0008191E0008191E0008191E000804
:10010000191E0008191E0008191E0008191E0008F3
:10011000191E0008191E0008191E0008191E0008E3
:10012000191E0008191E0008191E0008191E0008D3
:10013000191E00080000000000000000191E000841
:10014000191E0008191E0008191E0008191E0008B3
:10015000191E0008191E0008191E0008191E0008A3
:10016000191E0008191E0008191E0008191E000893
:10017000191E0008191E0008191E000800000000C2
:1001800000000000191E0008000000000000000030
:10019000191E00080000000000000000191E0008E1
:1001A000000000000000000000000000191E000810
:1001B000191E0008191E0008191E0008191E000843
:0401C000191E0008FC
:1001C400830730B547D0541E002A3ED0CAB2034636
:1001D40001E0013C39D303F8012B9D07F9D1032C2D
:1001E4002CD9CDB205EB05250F2C05EB054535D9EA
:1001F400A4F1100222F00F0C03F1100EE6444FEAB2
:10020400121C1A46C2E90055C2E902551032724561
:10021400F8D10CF1010214F00C0F03EB021204F0FC
:100224000F0C13D0ACF1040323F003030433134481
:1002340042F8045B9342FBD10CF003042CB1C9B225
:100244001C4403F8011BA342FBD130BD6446134692
:10025400002CF4D1F9E703461446C0E71A46A44635
:10026400E0E700BF70B50F4B0F4DAB42A3EB0506A3
:1002740007D0B610002455F8043B01349847A64231
:10028400F9D801F019FF094D094B5E1BAB424FEA47
:10029400A60606D0002455F8043B01349847A6422C
:1002A400F9D870BDFC200008FC200008FC200008E0
:1002B4000021000853B94AB9002908BF00281CBF0F
:1002C4004FF0FF314FF0FF3000F00CB8ADF1080CE7
:1002D4006DE904CE01F09FFDDDF804E0DDE90223C1
:1002E40004B07047704700BF10B5054C237833B98C
:1002F400044B13B10448AFF300800123237010BDF5
:100304000C00002000000000BC20000808B5034BCE
:100314001BB103490348AFF3008008BD000000008F
:1003240010000020BC20000872B6FEE700B595B0AE
:100334003422002107A8FFF743FF0023029303930D
:100344000493059306930093204A116C41F0805165
:100354001164126C02F080520092009A01931C4BBB
:100364001A6842F440421A601B6803F44043019344
:10037400019B012307934FF48033089302230D93C9
:100384004FF480020E9206220F92A822109211932B
:100394001293139307A800F067FB98B90F230293F5
:1003A40002230393002304934FF4A05305934FF4C3
:1003B40080530693052102A800F0ECF920B915B08A
:1003C4005DF804FBFFF7B0FFFFF7AEFF0038024013
:1003D4000070004008B501F013F9FFF7A7FF00F023
:1003E40009F801F043F900F035F800F053F801F092
:1003F40057F9FEE784B000220092154B196B41F0C7
:1004040080011963196B01F0800100910099019238
:10041400196B41F004011963196B01F00401019196
:1004240001990292196B41F002011963196B01F0F1
:1004340002010291029903921A6B42F001021A63BB
:100444001B6B03F001030393039B04B0704700BFCD
:100454000038024008B50D480D4B03600223436089
:1004640000238360C3604FF4602202614FF4800272
:100474004261037643768376C3760377437700F04D
:10048400E3F800B908BDFFF74FFFFBE75400002075
:100494000064004008B50D480D4B0360072343601A
:1004A40000238360C3604FF4003202614FF4800282
:1004B4004261037643768376C3760377437700F00D
:1004C400C3F800B908BDFFF72FFFFBE72C0000209D
:1004D4000068004000B58BB0002305930693079392
:1004E400089309930368374A934205D0364A9342E6
:1004F4002FD00BB05DF804FB344A1368013313604A
:10050400012B19D000230193314B1A6B42F00202E4
:100514001A631B6B03F002030193019B4FF44073B6
:10052400059302230693032308930923099305A93A
:10053400284800F0BBFCDCE700230093244B1A6C32
:1005440042F000721A641B6C03F000730093009B6A
:10055400D8E7002302931E4B1A6C42F080621A649F
:100564001B6C03F080630293029B184A13680133E7
:100574001360012B19D000230493154B1A6B42F01E
:1005840002021A631B6B03F002030493049B4FF4EF
:1005940040530593022306930323089309230993E5
:1005A40005A90C4800F082FCA3E700230393084B41
:1005B4001A6C42F000721A641B6C03F0007303930C
:1005C400039BD8E700640040006800402800002036
:1005D4000038024000040240FEE7FEE7FEE7FEE7C3
:1005E400FEE770477047704708B501F023F808BD6F
:1005F40008B5024800F074FE08BD00BF800000206A
:1006040008B5024801F08EFA08BD00BFE0000020E2
:1006140082B0002100910B4B5A6C42F480425A6420
:100624005A6C02F480420092009A01911A6C42F0D2
:1006340080521A641B6C03F080530193019B02B037
:10064400704700BF00380240002800F0A18038B590
:10065400044690F82030D3B12268136843F00103B4
:10066400136000F0F3FF054623685A6812F0010F87
:1006740010D100F0EBFF401B0A28F5D9636A43F45C
:1006840000336362052384F82030012038BDFFF76E
:1006940021FFE1E71A6822F002021A6000F0D6FF97
:1006A400054623685A6812F0020F0DD000F0CEFF01
:1006B400401B0A28F5D9636A43F4003363620523B7
:1006C40084F820300120E1E7227E012A3DD01A6817
:1006D40022F080021A60637E012B3BD022681368EB
:1006E40023F040031360A37E012B39D022681368E2
:1006F40023F020031360E37E012B37D022681368B4
:1007040043F010031360237F012B35D02268136854
:1007140023F008031360637F012B33D0226813682E
:1007240023F004031360A368E268134322691343AC
:10073400626913436268013A21681343CB61002064
:100744006062012384F82030A0E71A6842F0800236
:100754001A60C0E72268136843F040031360C2E7DD
:100764002268136843F020031360C4E72268136807
:1007740023F010031360C6E72268136843F00803EC
:100784001360C8E72268136843F004031360CAE7E0
:1007940001207047002800F09B8070B50D46044688
:1007A4004F4B1B6803F00F038B4208D2CBB24C4A69
:1007B4001370136803F00F038B4240F08B8023689F
:1007C40013F0020F17D013F0040F04D0454A9368B6
:1007D40043F4E0539360236813F0080F04D0414AB4
:1007E400936843F4604393603E4A936823F0F003B4
:1007F400A1680B439360236813F0010F32D0636840
:10080400012B21D09A1E012A25D9364A126812F0EA
:10081400020F61D033498A6822F0030213438B60CC
:1008240000F014FF06462F4B9B6803F00C0362682C
:10083400B3EB820F16D000F009FF801B41F288331E
:100844009842F0D9032042E0264A126812F4003F8D
:10085400E0D101203BE0234A126812F0007FD9D195
:10086400012034E01E4B1B6803F00F03AB4207D991
:10087400EAB21B4B1A701B6803F00F03AB422DD175
:10088400236813F0040F06D0164A936823F4E05348
:10089400E1680B439360236813F0080F07D0114AF3
:1008A400936823F46043216943EAC103936000F031
:1008B40047F80C4B9B68C3F303130B4AD35CD84033
:1008C4000A4B18600A4B186800F074FE002070BDD3
:1008D400012070470120FAE70120F8E70120F6E73C
:1008E400003C024000380240E420000808000020D8
:1008F40004000020014B1868704700BF0800002066
:1009040008B5FFF7F7FF044B9B68C3F38223034A40
:10091400D35CD84008BD00BF00380240DC2000088A
:1009240008B5FFF7E7FF044B9B68C3F34233034A60
:10093400D35CD84008BD00BF00380240DC2000086A
:1009440008B5464B9B6803F00C03082B05D00C2B11
:1009540043D0042B7FD1424819E0404B5A6802F03F
:100964003F025B6813F4800F12D03C4B5968C1F30B
:1009740088113B480023A1FB0001FFF79BFC374B88
:100984005B68C3F3014301335B00B0FBF3F008BDC4
:10099400324B5868C0F388104FEA401CBCEB000C83
:1009A4006EEB0E0E4FEA8E1343EA9C634FEA8C11F2
:1009B400B1EB0C0163EB0E03DB0043EA5173C90096
:1009C40011EB000C43F10003990200234FEA8C2041
:1009D40041EA9C51FFF76EFCD1E7204B5A6802F0C4
:1009E4003F025B6813F4800F10D01C4B5968C1F3AD
:1009F40088111B480023A1FB0001FFF75BFC174B88
:100A04005B68C3F30273B0FBF3F0C0E7134B5868A1
:100A1400C0F388104FEA401CBCEB000C6EEB0E0ECA
:100A24004FEA8E1343EA9C634FEA8C11B1EB0C013D
:100A340063EB0E03DB0043EA5173C90011EB000CB6
:100A440043F10003990200234FEA8C2041EA9C51B0
:100A5400FFF730FCD3E7034899E700BF00380240B2
:100A6400001BB7000024F400002800F0018270B5D8
:100A740082B00446036813F0010F41D0994B9B6880
:100A840003F00C03042B32D0964B9B6803F00C0349
:100A9400082B27D0934B9B6803F00C030C2B59D0E5
:100AA4006368B3F5803F5BD0B3F5A02F5ED08D4B68
:100AB4001A6822F480321A601A6822F480221A60BA
:100AC4006368002B5CD000F0C1FD0546854B1B68B4
:100AD40013F4003F14D100F0B9FD401B6428F5D98C
:100AE4000320CCE17F4B5B6813F4800FD2D07D4BA5
:100AF4001B6813F4003F03D06368002B00F0BA8135
:100B0400236813F0020F60D0764B9B6813F00C0F30
:100B14004AD0744B9B6803F00C03082B3FD0714BF5
:100B24009B6803F00C030C2B69D0E368002B75D091
:100B34006D4B01221A6000F089FD0546694B1B6864
:100B440013F0020F61D100F081FD401B0228F5D99A
:100B5400032094E1634B5B6813F4800FA0D0C6E7D5
:100B6400604A136843F480331360A9E75D4B1A6845
:100B740042F480221A601A6842F480321A609FE7B5
:100B840000F064FD0546574B1B6813F4003FB7D0D3
:100B940000F05CFD401B6428F5D903206FE1514B44
:100BA4005B6813F4800FBAD14E4B1B6813F0020F2D
:100BB40003D0E368012B40F05F814A4A136823F0B5
:100BC400F803216943EAC1031360236813F0080F93
:100BD40049D06369002B33D0434B0122C3F8802EE4
:100BE40000F034FD05463F4B5B6F13F0020F3AD122
:100BF40000F02CFD401B0228F5D903203FE1394BBE
:100C04005B6813F4800F90D1CEE7364A136823F063
:100C1400F803216943EAC1031360D6E7324B00228B
:100C24001A6000F013FD05462E4B1B6813F0020FEB
:100C3400CBD000F00BFD401B0228F5D903201EE1A8
:100C4400294B0022C3F8802E00F000FD0546254BF9
:100C54005B6F13F0020F06D000F0F8FC401B022873
:100C6400F5D903200BE1236813F0040F76D01D4B54
:100C74001B6C13F0805F33D100230193194B1A6C62
:100C840042F080521A641B6C03F080530193019B61
:100C94000125164B1B6813F4807F29D0A368012B10
:100CA4003AD0052B3ED00F4B1A6F22F001021A677F
:100CB4001A6F22F004021A67A368002B3CD000F0DC
:100CC400C5FC0646074B1B6F13F0020F45D100F01D
:100CD400BDFC801B41F288339842F3D90320CEE057
:100CE4000025D6E70038024000004742007000406B
:100CF4006B4A136843F48073136000F0A7FC064644
:100D0400674B1B6813F4807FC8D100F09FFC801BE5
:100D14000228F5D90320B2E0624A136F43F00103BD
:100D24001367C9E75F4B1A6F42F004021A671A6F20
:100D340042F001021A67BFE700F088FC0646594BEF
:100D44001B6F13F0020F08D000F080FC801B41F2EF
:100D540088339842F3D9032091E0EDB9A369002BBD
:100D640000F08C804F4A926802F00C02082A54D09A
:100D7400022B17D04C4B00221A6600F067FC044685
:100D8400484B1B6813F0007F45D000F05FFC001B4C
:100D94000228F5D9032072E0424A136C23F08053F1
:100DA4001364DBE7404B00221A6600F04FFC054653
:100DB4003C4B1B6813F0007F06D000F047FC401B3F
:100DC4000228F5D903205AE0E369226A1343626AD0
:100DD40043EA8213A26A5208013A43EA0243E26AEE
:100DE40043EA0263226B43EA02732E4A53602E4B9A
:100DF40001221A6600F02AFC04462A4B1B6813F0F1
:100E0400007F06D100F022FC001B0228F5D9032044
:100E140035E0002033E0002031E0012B31D0214BBC
:100E24005B6803F48001E26991422CD103F03F0234
:100E3400216A8A4229D1616A47F6C0721A40B2EB2C
:100E4400811F24D103F44031A26A5208013AB1EB64
:100E5400024F1ED103F07062E16AB2EB016F1AD146
:100E640003F0E043226BB3EB027F16D1002006E0CF
:100E740001207047012002E0012000E0002002B0C0
:100E840070BD0120FBE70120F9E70120F7E701200D
:100E9400F5E70120F3E70120F1E70120EFE700BFC8
:100EA40000700040003802400000474200230F2B2E
:100EB40000F2E38070B582B065E085684FEA430EC6
:100EC400032404FA0EF425EA0405CC6804FA0EF4AB
:100ED4002C438460446824EA02044A68C2F3001282
:100EE4009A40224342605CE0DC08083450F8242035
:100EF40003F00705AD004FF00F0E0EFA05FE22EACF
:100F04000E0E0A69AA4042EA0E0240F824205CE070
:100F1400062200E0002202FA0EF22A430234574D60
:100F240045F82420564A94686FEA0C0224EA0C051A
:100F34004E6816F4801F01D04CEA0405504CA5609D
:100F4400E46802EA04054E6816F4001F01D04CEA76
:100F540004054B4CE560646802EA04054E6816F427
:100F6400003F01D04CEA0405454C656024682240EA
:100F74004D6815F4803F01D04CEA0402404C2260D5
:100F840001330F2B77D801229A400C6804EA020C33
:100F940032EA0404F4D14C6804F00304013C012C4B
:100FA4008BD94A6802F00302032A09D0C4685D00A1
:100FB4000322AA4024EA02048A68AA402243C260A7
:100FC4004A6802F00302022A8ED004684FEA430EF4
:100FD400032202FA0EF224EA02044A6802F003022F
:100FE40002FA0EF2224302604A6812F4403FC7D06C
:100FF40000220192234A546C44F480445464526C99
:1010040002F480420192019A9C08A51C1B4A52F8E2
:10101400255003F0030E4FEA8E0E0F2202FA0EF251
:1010240025EA0205184A90423FF474AF02F5806243
:10103400904216D002F58062904214D002F580628C
:10104400904212D002F58062904210D002F5806284
:1010540090420ED002F5806290423FF459AF0722CD
:1010640059E7012257E7022255E7032253E70422F6
:1010740051E705224FE702B070BD704700380140C8
:10108400003C0140003802400000024010B40368F4
:10109400D9B210390A4AA2FB01421209094CA25CD6
:1010A400C2655F2907D96FF3090304338365806D33
:1010B4005DF8044B70476FF309038365F7E700BFDE
:1010C400ABAAAAAAD4200008836A826992B9012B28
:1010D4000AD0022B02D00BB100207047C36A13F070
:1010E400807F28D100207047C36AB3F1C07F24D029
:1010F40000207047B2F5005F09D0022B25D9032BDD
:1011040025D1C36A13F0807F23D100207047032BBD
:1011140003D8DFE803F01404140A00207047C36AFC
:1011240013F0807F0DD100207047C36AB3F1C07FF4
:1011340009D000207047012070470120704701202A
:10114400704701207047012070470120704700203C
:10115400704701207047000070B5044600F076FA2D
:10116400002C5BD00546022384F83530002384F834
:1011740034302268136823F00103136023681A686B
:1011840012F0010F0AD000F061FA431B052BF5D9C8
:1011940020236365032084F8350070BD1A68204954
:1011A40011406268A0680243E06802432069024378
:1011B40060690243A0690243E0690243206A024372
:1011C4000A43616A04291ED01A602668756925F0ED
:1011D4000705636A1D43042B07D1A36A1D43E36A11
:1011E4001BB12046FFF770FF90B975612046FFF7E9
:1011F4004DFFE26D3F23934083600020606501232F
:1012040084F83530C9E7E16A206B01430A43DBE720
:1012140040236365012084F83500BEE70120BCE764
:101224003F8010F070B50446866D00F00FFA94F814
:101234003530DBB2022B06D080236365002384F8AB
:101244003430012070BD05462268136823F016036C
:1012540013602268536923F080035361236CE3B164
:101264002268136823F0080313602268136823F0CC
:101274000103136023681B6813F0010F11D000F001
:10128400E5F9431B052BF5D920236365032084F876
:101294003500002384F83430D4E7A36C002BDFD16D
:1012A400E3E7E26D3F239340B360012384F83530D4
:1012B400002084F83400C5E790F83530DBB2022B07
:1012C40003D08023436501207047052380F835301F
:1012D4000268136823F001031360002070470000C4
:1012E400F0B583B0044600230193724B1D68724B22
:1012F400A3FB0535AD0A876D3E68C26D0823934094
:10130400334210D003681A6812F0040F0BD01A6825
:1013140022F004021A60C26D08239340BB60436D3F
:1013240043F001034365E26D01239340334209D046
:101334002268526912F0800F04D0BB60636D43F0E1
:1013440002036365E26D04239340334209D02268AB
:10135400126812F0020F04D0BB60636D43F0040303
:101364006365E26D10239340334224D022681268EF
:1013740012F0080F1FD0BB6023681A6812F4802F84
:101384000DD01B6813F4002F04D1236C9BB12046AD
:10139400984710E0A36C73B1204698470BE01A6895
:1013A40012F4807F03D11A6822F008021A60236CB9
:1013B4000BB120469847E26D20239340334255D029
:1013C4002268126812F0100F50D0BB6094F83530C8
:1013D400DBB2052B0ED023681A6812F4802F33D0A9
:1013E4001B6813F4002F2AD1636C002B3ED02046D7
:1013F40098473BE02268136823F0160313602268C1
:10140400536923F080035361236CA3B122681368EA
:1014140023F008031360E26D3F239340BB60012374
:1014240084F83530002384F83430236D002B3FD00A
:10143400204698473CE0A36C002BE7D1EBE7E36B35
:10144400A3B12046984711E01A6812F4807F09D1AD
:101454001A6822F010021A60012384F83530002340
:1014640084F83430E36B0BB120469847636DFBB1CD
:10147400636D13F0010F17D0052384F8353022680B
:10148400136823F001031360019B01330193AB4202
:1014940004D823681B6813F0010FF5D1012384F8E5
:1014A4003530002384F83430E36C0BB12046984780
:1014B40003B0F0BD08000020B5814E1B002807DBF7
:1014C40000F01F02400901239340024A42F82030F1
:1014D400704700BF00E100E0002808DB0901C9B241
:1014E40000F1604000F5614080F80013704700F09F
:1014F4000F000901C9B2014B1954704714ED00E003
:1015040000B500F00700C0F1070CBCF1040F28BFC0
:101514004FF0040C031D062B0FD9C31E4FF0FF3EE2
:101524000EFA0CF021EA000199400EFA03FE22EAB9
:101534000E0241EA02005DF804FB0023EEE700001E
:10154400074AD36823F4E0631B041B0C000200F475
:10155400E060034343F0BF6343F40033D360704758
:1015640000ED00E010B50446054BD868C0F3022036
:10157400FFF7C6FF01462046FFF7AEFF10BD00BFD0
:1015840000ED00E008B5FFF799FF08BD0138B0F1A0
:10159400807F0BD24FF0E0235861054AF02182F896
:1015A40023100020986107221A61704701207047B8
:1015B40000ED00E010B504460E4B1A784FF47A7330
:1015C400B3FBF2F30C4A1068B0FBF3F0FFF7DEFF55
:1015D40068B90F2C01D901200AE0002221464FF0FE
:1015E400FF30FFF7BFFF054B1C60002000E0012027
:1015F40010BD00BF000000200800002004000020EF
:1016040008B50B4B1A6842F400721A601A6842F467
:1016140080621A601A6842F480721A600320FFF72D
:101624008FFF0F20FFF7C6FFFEF7F2FF002008BD73
:10163400003C0240034A1168034B1B780B441360BF
:10164400704700BF7C00002000000020014B186898
:10165400704700BF7C000020034AD2F8883043F46E
:101664007003C2F88830704700ED00E000B583B025
:1016740000210191094B1A6B42F400121A631B6B8F
:1016840003F400130193019B0A460C20FFF76AFF41
:101694000C20FFF777FF03B05DF804FB003802402D
:1016A40008B50B480B4B03600B4B4360002383606E
:1016B400C3604FF480620261042242618361C361AA
:1016C40000F074F900B908BDFEF72EFEFBE700BF79
:1016D400E000002000480040A08601002DE9F0470A
:1016E40088B0002303930493059306930793026839
:1016F400364B9A4202D008B0BDE8F0870446002574
:10170400009503F5F8331A6C42F480221A641A6CBB
:1017140002F480220092009A01951A6B42F00402AE
:101724001A631A6B02F004020192019A02951A6B71
:1017340042F002021A631B6B03F002030293029B42
:10174400202303934FF0020ACDF810A04FF00109B3
:10175400CDF814904FF00308CDF8188007270797A9
:1017640003A91B48FFF7A2FB4FF480660396CDF84C
:1017740010A0CDF81490CDF81880079703A9154848
:10178400FFF794FB1448154B03604FF0006343606C
:101794008560C5600661456185614FF48073C361EE
:1017A4004FF4403303624562FFF7D6FC58B90A4B45
:1017B400E3639C63002211462720FFF7D3FE272012
:1017C400FFF7E0FE97E7FEF7AFFDF0E700480040C3
:1017D400000802400004024080000020286002400B
:1017E400026802F10C0353E8003F23F490730C32B7
:1017F40042E800310029F3D1026802F1140353E8EE
:10180400003F23F00103143242E800310029F3D1F0
:10181400036B012B05D0202380F84230002303639F
:101824007047026802F10C0353E8003F23F01003F1
:101834000C3242E800310029F3D1ECE790F8413052
:10184400DBB2212B01D0022070478368B3F5805F9F
:1018540017D0036A5A1C02621A7803685A60C38C50
:101864009BB2013B9BB2C3844BB90268D36823F09B
:101874008003D3600268D36843F04003D360002040
:1018840070470369002BE4D1036A1B880268C3F321
:1018940008035360036A02330362E0E710B50446A9
:1018A4000268136923F44053C1680B4313618368CE
:1018B40002691A4343691A43C3691A430168CB682E
:1018C40023F4164323F00C031343CB6002685369DB
:1018D40023F4407381690B4353610368314A934293
:1018E40006D002F58062934202D0FFF709F801E0C6
:1018F400FFF716F8E369B3F5004F29D00021031868
:1019040049411B1841F10001C90041EA5371DB0050
:10191400181863684FEA83024FEA937341F1000198
:10192400FEF7C8FC204AA2FB00314909642303FBEB
:1019340011031B013233A2FB03235B0903F0F00202
:1019440002EB011203F00F03216813448B6010BDF6
:101954000023021843EB0301121841F10001C900EE
:1019640041EA5271D200101841F1000162689218E4
:101974005B41FEF79FFC0C4AA2FB0031490964233A
:1019840003FB1103DB003233A2FB03235B095A0080
:1019940002F4F87202EB011203F007032168134406
:1019A4008B60D4E7001001401F85EB5160B310B584
:1019B400044690F8413013B3242384F8413022685C
:1019C400D36823F40053D3602046FFF767FF2268EF
:1019D400136923F4904313612268536923F02A03A3
:1019E40053612268D36843F40053D36000206064D9
:1019F400202384F8413084F84230606310BD80F8BD
:101A04004030FFF76BFED7E701207047704708B5F9
:101A14000168CA6822F04002CA60202280F841208E
:101A2400FFF7F4FF002008BD7047704708B5806BCE
:101A34000023C385FFF7F9FF08BD704790F84230D3
:101A4400DBB2222B69D18368B3F5805F4FD0826A01
:101A5400B3F5805F04D0002B56D10369002B53D11A
:101A640003685B681370836A01338362C38D9BB21E
:101A7400013B9BB2C385002B51D100B583B00268F2
:101A8400D36823F02003D3600268D36823F48073FF
:101A9400D3600268536923F001035361202380F863
:101AA400423000234363036B012B33D100230363D0
:101AB400026802F10C0353E8003F23F010030C32D8
:101AC40042E800310029F3D103681A6812F0100FBC
:101AD40006D0002201921A6801925B680193019B6F
:101AE400818DFFF7AAFF002003B05DF804FB0269B3
:101AF400002AACD1826A03685B68C3F308031380CD
:101B0400836A02338362B1E703685B6803F07F038F
:101B14001370A8E7FFF788FFE5E70220704700206D
:101B24007047000010B582B0044602681368D0689C
:101B3400516913F00F0F09D113F0200F0CD010F0DE
:101B4400200F09D02046FFF779FF16E011F00101BC
:101B540015D110F4907F12D1216B012979D013F0A3
:101B6400800F03D010F0800F40F0218113F0400F5C
:101B740003D010F0400F40F01E8102B010BD13F0EE
:101B8400010F06D010F4807F03D0626C42F0010292
:101B9400626413F0040F04D019B1626C42F00202C3
:101BA400626413F0020F04D019B1626C42F00402B3
:101BB400626413F0080F07D010F0200F00D119B1A0
:101BC400626C42F008026264626C002AD5D013F0A1
:101BD400200F02D010F0200F29D123685B6903F095
:101BE4004003626C12F0080F00D163B32046FFF784
:101BF400F7FD23685B6913F0400F20D0226802F1DF
:101C0400140353E8003F23F04003143242E8003148
:101C14000029F3D1E36B73B1694A1A65E06BFFF7EE
:101C24004BFB0028A9D0E06B036D9847A5E720463D
:101C3400FFF704FFD1E72046FFF7F7FE9DE72046B4
:101C4400FFF7F3FE99E72046FFF7EFFE00236364F6
:101C540093E713F0100F82D010F0100F3FF47FAF12
:101C6400002301931368019353680193019B536903
:101C740013F0400F5FD0E26B13685B689BB2002BDC
:101C84004AD0A18D994247D9E385D369B3F5807FC2
:101C940037D0226802F10C0353E8003F23F4807329
:101CA4000C3242E800310029F3D1226802F1140316
:101CB40053E8003F23F00103143242E800310029C5
:101CC400F3D1226802F1140353E8003F23F04003E8
:101CD400143242E800310029F3D1202384F8423041
:101CE40000232363226802F10C0353E8003F23F02E
:101CF40010030C3242E800310029F3D1E06BFFF706
:101D040091FA02236363A18DE38D9BB2C91A89B250
:101D14002046FFF792FE30E7A18D99427FF42DAF64
:101D2400D369B3F5807F7FF428AF02236363204631
:101D3400FFF783FE21E7A18DE38D9BB2C91A89B217
:101D4400E38D9BB2002B3FF418AF00293FF415AF8D
:101D5400226802F10C0353E8003F23F490730C3221
:101D640042E800300028F3D1226802F1140353E85A
:101D7400003F23F00103143242E800300028F3D17D
:101D8400202384F8423000232363226802F10C03E9
:101D940053E8003F23F010030C3242E800300028DF
:101DA400F3D1022363632046FFF747FEE5E62046AE
:101DB400FFF744FDE1E62046FFF729FEDDE600BF1C
:101DC400311A0008DFF834D0FFF746FC0C480D49FF
:101DD4000D4A002302E0D458C4500433C4188C4282
:101DE400F9D30A4A0A4C002301E013600432A242E8
:101DF400FBD3FEF737FAFEF7EDFA70470000022036
:101E0400000000200C000020042100080C00002029
:101E140028010020FEE72DE9F04786468C46084657
:101E2400089E154674461946002B40F0C280854230
:101E3400B2FA82F245D94AB1C2F1200300FA02FC97
:101E44002EFA03F3954043EA0C0C94404FEA154EE6
:101E5400A8B2BCFBFEF8230C0EFB18CC08FB00F95F
:101E640043EA0C43994528D9EB1808F1FF3704D20B
:101E7400994502D9A8F102072B44A3EB0903A4B2A4
:101E8400B3FBFEFC0EFB1C330CFB00F044EA0344E2
:101E9400A04214D92C190CF1FF3304D2A04202D968
:101EA400ACF102032C44241A43EA07401EB1D44087
:101EB400002334607360BDE8F0874746DDE763467E
:101EC400F1E792BB431B01214FEA154EAFB2B3FBBE
:101ED400FEFC200C0EFB1C330CFB07F840EA03430A
:101EE400984562D9EB180CF1FF3004D2984502D919
:101EF400ACF102002B44A3EB0803A4B2B3FBFEFC39
:101F04000EFB1C330CFB07F744EA0344A7424ED9EB
:101F14002C190CF1FF3304D2A74202D9ACF102030D
:101F24002C44E41B43EA0040C0E7C2F1200320FA3A
:101F340003F1954090402EFA03F303434FEA154E04
:101F4400AFB2B1FBFEFC0EFB1C10190C0CFB07F826
:101F540041EA0041884504FA02F422D969180CF1D7
:101F6400FF3004D2884502D9ACF102002944A1EB28
:101F740008019BB2B1FBFEFC0EFB1C110CFB07F726
:101F840043EA01439F420ED9EB180CF1FF3104D20E
:101F94009F4202D9ACF102012B44DB1B41EA004110
:101FA40092E76046E3E76146F7E76046A3E76346E6
:101FB400B7E7834206D916B9002108467BE7C6E98C
:101FC40000E0F9E7B3FA83F78FB9834201D372458E
:101FD40008D8BEEB020460EB030301209C461EB943
:101FE400002168E73846FAE7C6E9004CF8E7C7F18C
:101FF400200CBB4022FA0CF41C432EFA0CF120FAFC
:102004000CF3B84001434FEA14490EFA07F5B3FB49
:10201400F9F81FFA84FE09FB18300B0C08FB0EFAC2
:1020240043EA00439A4502FA07F240D9E31808F15B
:10203400FF3004D29A4502D9A8F102002344A3EB4D
:102044000A0389B2B3FBF9F809FB183308FB0EFE47
:1020540041EA03418E452CD9611808F1FF3304D2BB
:102064008E4502D9A8F10203214443EA0040A0FBB3
:102074000298A1EB0E014145CE46434602D306D158
:102084004D4504D2B9EB020E68EB04030138002E6F
:10209400A6D0B5EB0E0261EB030101FA0CFC22FAA7
:1020A40007F34CEA0303F940C6E9003198E74046D8
:1020B400C5E74346D9E70000F8B500BFF8BC08BC43
:1020C4009E467047F8B500BFF8BC08BC9E467047F2
:1020D400000610160006101600000000010203049A
:1020E40000000000000000000102030406070809C4
:0820F40026FDFF7F0100000042
:0420FC0011030008C4
:04210000ED020008E4
:0C21040001000000100000000024F400A6
:0400000508001DC909
:00000001FF
