:020000040800F2
:1000000000000220914100086119000863190008EE
:100010006519000867190008691900080000000048
:100020000000000000000000000000006B19000844
:100030006D190008000000006F1900087119000810
:10004000E1410008E1410008E1410008E141000808
:10005000E1410008E1410008E1410008E1410008F8
:10006000E1410008E1410008E1410008E1410008E8
:10007000E1410008E1410008E1410008E1410008D8
:10008000E1410008E1410008E1410008E1410008C8
:100090007919000889190008E1410008E1410008C8
:1000A000E1410008E1410008E1410008E1410008A8
:1000B000E1410008E1410008E1410008E141000898
:1000C000E1410008E1410008E1410008E141000888
:1000D000E1410008E1410008E1410008AD380008B5
:1000E000E1410008E1410008E1410008E141000868
:1000F000E1410008E1410008E1410008E141000858
:10010000E1410008E1410008E1410008E141000847
:10011000E1410008E1410008E1410008E141000837
:10012000E1410008E1410008E1410008E141000827
:10013000E14100080000000000000000E14100086B
:1001400099190008A9190008E1410008E1410008D7
:10015000E1410008E1410008E1410008E1410008F7
:10016000E1410008E1410008E1410008E1410008E7
:10017000E1410008E1410008E14100080000000001
:1001800000000000E1410008000000000000000045
:10019000E14100080000000000000000E14100080B
:1001A000000000000000000000000000E141000825
:1001B000E1410008E1410008E1410008E141000897
:0401C000E141000811
:1001C400830730B547D0541E002A3ED0CAB2034636
:1001D40001E0013C39D303F8012B9D07F9D1032C2D
:1001E4002CD9CDB205EB05250F2C05EB054535D9EA
:1001F400A4F1100222F00F0C03F1100EE6444FEAB2
:10020400121C1A46C2E90055C2E902551032724561
:10021400F8D10CF1010214F00C0F03EB021204F0FC
:100224000F0C13D0ACF1040323F003030433134481
:1002340042F8045B9342FBD10CF003042CB1C9B225
:100244001C4403F8011BA342FBD130BD6446134692
:10025400002CF4D1F9E703461446C0E71A46A44635
:10026400E0E700BF70B50F4B0F4DAB42A3EB0506A3
:1002740007D0B610002455F8043B01349847A64231
:10028400F9D804F0FDF8094D094B5E1BAB424FEA67
:10029400A60606D0002455F8043B01349847A6422C
:1002A400F9D870BD384900083849000838490008B1
:1002B4003C49000808B52DED028BB0EE408A00F0F1
:1002C400EFF9B4EE488AF1EE10FAF0EE408A0AD65D
:1002D400B0EE480A00F076F8F7EE007AB4EEE70ADA
:1002E400F1EE10FA04DCB0EE680ABDEC028B08BD36
:1002F40001F092F9BDEC028B034621221A600248F8
:10030400BDE8084000F0A0B8F048000800F0EABAE0
:1003140008B52DED028BB0EE408A00F0F3F8B4EE90
:10032400488AF1EE10FA06D6DFED098AB4EEE88ABF
:10033400F1EE10FA02D4BDEC028B08BD01F06CF9A9
:1003440088EEA80ABDEC028B2123036008BD00BF20
:100354000000000010EE103A184923F000428A42CF
:100364001AD9B2F1FF4F02D330EE400A704700B5FC
:1003740083B0684600F05CFB00F003000128DDED6B
:10038400010A9DED000A10D0022809D090B900F0AE
:10039400BDF803B05DF804FBDFED090A00F0B6B860
:1003A40000F0B4F8B1EE400AF3E700F031F9B1EE31
:1003B400400AEEE7012000F02BF9EAE7D80F493FA5
:1003C4000000000010EE103A23F0004300EE103A53
:1003D400704700BF10EE103A194923F000428A42D8
:1003E4001BD9B2F1FF4F02D330EE400A704700B57B
:1003F40083B0684600F01CFB00F003000128DDED2B
:10040400010A9DED000A13D002280BD098B90120EF
:1004140000F0FEF803B05DF804FBDFED0A0A0020EB
:1004240000F0F6B8012000F0F3F8B1EE400AF1E76D
:1004340000F06CF8EEE700F069F8B1EE400AE9E785
:10044400D80F493F000000009FED010A704700BF2C
:100454000000C07F08B52DED028BF0EE408AB0EEAF
:10046400608A00F033F820B9B0EE480ABDEC028B84
:1004740008BDB0EE480A00F029F820B1F4EEC88AAD
:10048400F1EE10FAF0DDB0EE680ABDEC028B08BDA7
:1004940008B52DED028BF0EE408AB0EE608A00F0D4
:1004A40015F820B9B0EE480ABDEC028B08BDB0EED9
:1004B400480A00F00BF820B1F4EEC88AF1EE10FA05
:1004C400F0D5B0EE680ABDEC028B08BD10EE103A10
:1004D40033F000400ED0A0F50003B3F1FE4F0DD36E
:1004E400074B421E9A4207D9A0F1FF40B0FA80F0B0
:1004F400400970470220704703207047042070476A
:10050400FEFF7F00B1EEC00A704700BF10EE103A44
:1005140023F00043B3F1485F2CD2FDEEC07A17EE0E
:10052400903A002B60D060EE007A9FED317A9FED17
:10053400315ADFED315A9FED316ADFED316AA7EEB2
:10054400875A9FED307AE7EE855AA7EEA56AA7EEA3
:10055400867AE7EE876A67EEA66A60EEC00AB6EEB0
:10056400007AE7EEA60AB7EE000AD7EE870A30EE65
:10057400600A704760EE007A9FED1D7A9FED1D5A68
:10058400DFED1D5A9FED1D6ADFED1D6A1E4AA7EEC1
:10059400875A93429FED1B7AE5EE275AA5EEA76A88
:1005A400A6EE277AE7EE276A66EEA76AD5D9174A38
:1005B400934214D803F17F4307EE103AB7EE006A72
:1005C40036EE476A60EEC00AF6EE005A97EEA57A58
:1005D400E7EEA60A37EE607A36EE470A7047B6EEC3
:1005E400076AB5EE027AEDE7B7EE000A704700BF7E
:1005F4004ED747ADF6740F317CF293B4010DD0376A
:10060400ABAA2A3D610BB6BA9999993E0000483FBE
:1006140010EE103A23F00043B3F1485F04D2FDEE2C
:10062400C07A17EE903A5BB360EE007A9FED157ACC
:10063400DFED155A9FED156ADFED156AE7EE875A6F
:100644009FED147AA5EEA76A20EE275AE6EE276AF4
:10065400A6EEA77A30B9DFED106AE7EE876AA6EE58
:10066400850A704727EE457AF6EE006AA0EEA67A70
:10067400DFED0A6AD7EE270AE5EE260A30EE600AB5
:10068400704700BFD3C92E2F342FD7B21BEF383693
:10069400010D50B98988083CABAA2ABEABAA2A3EF0
:1006A40008B510EE102A22F00043B3F17E5F2DED61
:1006B400028B12D00AD8B3F17C5F19D2B3F10C5F6C
:1006C4006AD8BDEC028B9FED760A08BD70EE407AC5
:1006D40087EEA70ABDEC028B08BDBDEC028B9FED33
:1006E400710ADFED717A002AC8BFB0EE670A08BD4F
:1006F400002AC0F28E80F7EE008A38EEC00AF6EEC9
:10070400007A20EE278AB0EE480AFFF7FBFEDFED01
:10071400677A9FED677ADFED676ADFED675A9FEDD1
:10072400676AA8EE277ADFED667AE7EE086AE8EEF4
:10073400067AE6EE885A9FED636A9FED637ADFEDF1
:10074400636AA5EE886AA7EE887ADFED617AE6EE41
:10075400087A10EE103AE7EE086A6FF30B03B0EE76
:10076400677A07EE903AF0EE485AE7EEE75AE6EE7B
:10077400888A30EE276A27EE087AC5EE866A87EE05
:10078400286ABDEC028BB0EE667AA0EE067A37EEEC
:10079400870A30EE000A08BD20EE007ADFED437AC6
:1007A4009FED436ADFED436A9FED445ADFED425A01
:1007B400A7EE276ABDEC028BE6EE076ADFED407A0E
:1007C4009FED416AE7EE057AE6EE875AA7EE876A5F
:1007D4009FED3C5ADFED3D7ADFED3D6AA5EE875A89
:1007E400E6EE077AE5EE076AF7EE005AE7EE875A77
:1007F40026EE877A9FED376ADFED377AC7EE256AF2
:10080400B0EE467AA0EE667A30EE470A37EEC00ABA
:1008140008BDB7EE007A30EE070AF6EE007A60EE15
:10082400277ADFED226A9FED226ADFED224ADFEDAF
:10083400235A9FED215A9FED268AA7EEA66ADFED83
:10084400206AE6EE274AE7EEA56ADFED1F5A9FED20
:100854001D6AA4EEA75AE6EEA75ADFED1C6AA5EEC0
:10086400276AE5EEA76AA6EE278AA6EEA77A28EEFF
:10087400278AF0EE478AB0EE670AFFF743FE88EE58
:10088400286A9FED167ADFED167AA0EE067AF0EE6E
:10089400006A37EE007AE7EE667AB0EE670A19E787
:1008A400DB0FC93FDB0F49400000000008EF11389F
:1008B400047F4F3A461124BDA80A4E3E2EC69D3DE4
:1008C400613330BF90B0A6BE2D57014039D119C055
:1008D400ABAA2A3E6821A233DA0FC93F6821A2B32A
:1008E400DA0F494010B582B0CDED010A019B23F027
:1008F4000042B2F1FF4FF0EE407A30D810EE100A09
:1009040020F00041B1F1FF4F29D8B3F17E5F42D00E
:100914009C1704F0020444EAD07431B37AB3B2F100
:10092400FF4F40D0B1F1FF4F29D0891AB1F1F45FE4
:100934004FEAE15234DA002B42DA3C3240DA9FEDDE
:10094400340A012C4ED0022C43D064B19FED317A8D
:10095400DFED317A30EE070A30EE670A03E09DEDF1
:10096400017A37EE270A02B010BD022C10D09FED99
:100974002B7A032C08BFB0EE470A02B010BD9FEDDE
:10098400280ADFED287A0028A8BFB0EE670AEAE754
:100994009FED210AE7E702B0BDE8104000F078B906
:1009A4009FED200ACDE7B1F1FF4F04F1FF3420D0D1
:1009B400022C26D81C4B03EB840393ED030AD2E7E5
:1009C4009DED017A87EE870AFFF7FCFC00F060F9E1
:1009D400B7E79FED107ADFED107A30EE070A37EEB5
:1009E400C00AC0E710EE103A03F1004300EE103ADB
:1009F400B9E7022C08D80C4B03EB840393ED000AEF
:100A0400B1E79FED030AAEE79FED080AABE700BF2D
:100A1400000000002EBDBB33DB0F4940DB0F49C093
:100A2400DB0FC9BFDB0FC93FA8440008DB0F493FF8
:100A340070B510EE103A884A23F00044944286B010
:100A4400054671D9854A94421E4624D823F00042B3
:100A5400002BDFED837A834922F00F02B0EE407A57
:100A640040F3E0808A4270EE677A09BF9FED7E7A98
:100A7400DFED7E6ADFED7E6A77EEC77A37EEE67ADF
:100A840077EEC77A80ED007A77EEE67AC0ED017AE8
:100A9400012006B070BD774A944252D9B4F1FF4F99
:100AA40048D2E215863AA4EBC25307EE903ABDEE63
:100AB400E77ADFED716AB8EEC77A77EEC77A8DED23
:100AC400037A67EEA67ABDEEE77AB8EEC77A77EED8
:100AD400C77A8DED047A67EEA67AF5EE407AF1EEE8
:100AE40010FACDED057A40F09880B5EE407AF1EE3B
:100AF40010FA0CBF012302236049019102210091E5
:100B040003A8294600F094F9002EC2DA95ED007A84
:100B1400D5ED017AB1EE477AF1EE677A85ED007A88
:100B2400C5ED017A4042B4E7002285ED000A426037
:100B34000020AEE770EE407AC0ED017AC0ED007A95
:100B4400F6E7FFF73FFC9FED4E7A9FED456AF6EE20
:100B5400007AE0EE077A9FED457AFDEEE77A17EE2C
:100B6400900AF8EEE76A1F28A6EEC60A66EE877AB0
:100B7400B1EE666A20DC434A411E26F0004352F877
:100B8400212023F0FF03934216D030EE677A30EE33
:100B9400470A002E30EE670A85ED007A85ED010ADA
:100BA400BFF677AFB1EE477AB1EE400A85ED007A31
:100BB40085ED010A40426CE730EE677AE21517EEE4
:100BC400103AC3F3C753C3EBD453082BDFDD9FEDB7
:100BD400267A9FED275AF0EE405AE6EE075A70EE59
:100BE400657AE6EE077AD6EE857A35EEE77A17EE81
:100BF400103AC3F3C753D21A192A10DD9FED227A93
:100C04009FED225AB0EE650AA6EE070A75EEC07A89
:100C1400E6EE077AD6EE857AB7E703236CE7B0EE03
:100C2400650AB4E78A4270EE277A09BF9FED0E7A0F
:100C3400DFED0E6ADFED0E6A77EE877A37EEA67A7D
:100C440077EEC77A80ED007A77EEA67AC0ED017A66
:100C54004FF0FF301DE700BFD80F493FE3CB1640EC
:100C6400800FC93FD00FC93F00443537434435375F
:100C740008A3852E800F49430000804340450008A7
:100C840084F9223FC044000800A3852E32318D240C
:100C940038B510EE105A25F00044B4F1A14FF0EE2F
:100CA400407A0DD3B4F1FF4F58D8DFED4F7A9FED62
:100CB4004F7A002DCCBFB0EE470AB0EE670A38BDBC
:100CC4004B4B9C4259D8B4F1445F4AD34FF0FF32A6
:100CD40027EEA76A9FED475A9FED477ADFED475A03
:100CE400DFED474A66EE066A531CA6EE857AE6EE09
:100CF400A54A9FED445ADFED445AA7EE265AE4EE86
:100D0400A65A9FED427ADFED424AA5EE267AE5EE39
:100D1400A64A9FED405ADFED405AA7EE265A9FEDB2
:100D24003F7AA4EEA67AE5EE265A27EE267AA5EEB9
:100D3400867A27EE877A35D0394B03EB820393ED1D
:100D4400046AD3ED006A37EE467A002D37EE677AEF
:100D540036EEC70AB3DAB1EE400A38BD30EE000A07
:100D640038BD9FED307A30EE077AF7EE006AB4EEC4
:100D7400E67AF1EE10FAA9DD38BDFFF723FB2A4B22
:100D84009C4212D8A3F5D0039C4223D8F0EE007AFB
:100D9400BFEE007AA0EE277A002230EE270AC7EED3
:100DA400007A95E737EEC70A38BD204B9C420BD832
:100DB400F7EE087AB7EE007AA0EE277A022230EE38
:100DC400670AC0EE077A83E7BFEE007AC7EE007ABF
:100DD40003227DE7F7EE007A30EE677A30EE270AD9
:100DE4000122C7EE007A73E7DB0FC9BFDB0FC93FEF
:100DF400FFFFDF3ED769853C59DA4B3D21A215BD83
:100E04006BF16EBD356B883D95879DBD6E2EBA3DE9
:100E1400388EE3BD2549123EABAAAA3ECDCC4CBECA
:100E240058480008CAF24971FFFF973FFFFF1B4073
:100E34002DE9F04F2DED048BDBB01C469446039353
:100E44000A46CD4B68991CF1040F53F82160824681
:100E540004F1FF38C0F24982BCF1030348BF0CF12E
:100E64000403DB10029301334FEAC30EACEB0E0311
:100E74000593029B16EB0800A3EB080316D401307C
:100E84009FEDBE7A699C18441EA9002BA4BF54F898
:100E9400235007EE905A03F10103ACBFF8EEE77A52
:100EA400F0EE477A8342E1EC017AEED1002EC0F2F3
:100EB400B182039B1EA901EB830446AD4FEA83096B
:100EC4004046F7180AEB8301B8F1000FDFEDAB7A67
:100ED40009DBA3465346F3EC016A3BED017A8B42EE
:100EE400E6EE877AF7D10130B842E5EC017A04F1F5
:100EF4000404E9D10DF1280B0BEB8603CDE9062E92
:100F0400043B9FEDA09ADFED9E8A059804930AEBBB
:100F1400090446AF0BEB86090096CDF820C05AAB06
:100F240003EB8603002E13ED140A4FEA860515DD44
:100F34007B195A4660EE097AB0EE407AFDEEE77A04
:100F440073ED016AF8EEE77ABB42A7EEE87A37EE72
:100F5400A60ABDEEC77AA2EC017AEBD1019000F0AB
:100F640085FAF4EE007AB0EE408A20EE270A00F00B
:100F7400EFFAF2EE007AA0EE678A01980028FDEEFF
:100F8400C89AF8EEE97A38EE678A6CDD06F1FF3E1E
:100F9400C0F108035BF82E2042FA03FC0CFA03F3B9
:100FA400D21AC0F1070119EE903A4BF82E200A41EB
:100FB4006344002A09EE903A00F3F080B5EE408ACB
:100FC400F1EE10FA40F09D80009B9E420ADD5D44E4
:100FD400002355F8041D4D4543EA0103F9D1002BC4
:100FE40040F0F280009B013B5BF82330002B40F083
:100FF400E780049B012153F8042D0131002AFAD023
:10100400731C31449C46029D039A05EB030E0EF1BA
:10101400804E699D32440EF1FF3E07EB83061EAB02
:1010240005EB8E0E03EB8205DEED017AF8EEE77A2E
:10103400B8F1000F0EF1040EE5EC017ADFED4F7A02
:1010440009DB2A465346F3EC016A32ED017AA342E6
:10105400E6EE877AF7D10CF1010C6145E6EC017AF2
:10106400E2DA0E465BE740F08F80731E5BF82320C4
:10107400D211002AA2DD19EE903A002E03F10103E9
:1010840009EE903A40F3D48159464FF0000E51F8DE
:10109400043B002B6AD0C3F5807341F8043C04E0A0
:1010A4000B68C3F1FF0341F8043B0EF1010E7645D2
:1010B400F6DC01239E4600280ADD012878D00228A8
:1010C40006D1711E5BF8213003F03F0C4BF821C0B0
:1010D400022A7FF473AFB7EE000A734630EE488AF3
:1010E400002B3FF46BAF0992019000F0BFF938EE8A
:1010F400408A0198099AB5EE408AF1EE10FA3FF45D
:1011040063AF9246DDE9062EDDF820C00196AEEB12
:101114000C00B0EE480A009E009200F0A7F9DFED43
:10112400186AB4EEE60AF1EE10FADDE90023F0EEF7
:10113400407AC0F250819FED137A059920EE077A28
:101144000831BDEEC77A0591B8EEC77A5C1CE7EEAC
:10115400667ABDEEC77AFDEEE77A17EE901A4BF881
:10116400231017EE103A4BF8243046E00EF1010E2E
:10117400B6458CDB9E469EE77848000800000000D8
:10118400000080430000803BF6EE007AB4EEE78A6C
:10119400F1EE10FA80F2988000220FE70133002E5E
:1011A40009EE903A3FF770AF002301289E4686D19E
:1011B400711E5BF8213003F07F0C4BF821C087E7E8
:1011C400731C9C4619461EE733469246DDE9051218
:1011D4005C1EA1F108005BF82410009E059061B923
:1011E40003F18043013B0BEB8303014653F8040DE9
:1011F400013C08390028F9D0059105980092B7EE12
:10120400000A00F033F9002C009AB0EE407AC0F2E4
:101214000581601C46AD5FED256A81000BEB800300
:1012240005EB800073ED017AF8EEE77A5B4567EE33
:10123400877A27EE267A60ED017AF3D10DF1C8089A
:101244000B1F46A8C718C646A44600259146002E83
:1012540073DB844ADFED847A3846002301E0AB4235
:1012640008DCF2EC016AB0EC017A01339E42E6EE4E
:10127400877AF4DA0CF1FF3CBCF1FF3FEEEC017A23
:1012840005F10105A7F10407E1D1689B022B4A4649
:1012940056DC002B2EDC0ED1DFED737A414431EDA8
:1012A400017A414577EE877AF9D15346002B40F015
:1012B400AE80C2ED007A19EE903A03F007005BB0FD
:1012C400BDEC048BBDE8F08F19EE903A002E03F1CB
:1012D400010309EE903AC8BF02223FF7D5AEF7EEFC
:1012E400007A37EEC88A022268E600234FF0080E1F
:1012F4000293BBE59FED5C7A414471ED017A41456F
:1013040037EE277AF9D1DDED327A534677EEC77A94
:10131400002B75D182ED007A64B133A90123B1ECBD
:10132400017A01339C4277EE877AF8DA53460BB19F
:10133400F1EE677AC2ED017ABDE7DFED4B7A99E70A
:10134400689B032BB7D1002C7ED008EB840595ED68
:10135400007AA0002B46294671ED017AF0EE476A27
:1013640037EE277A414577EEC77A81ED007A77EE3A
:10137400A67AC1ED017AEFD1012C65D095ED007A02
:1013840008F1040173ED017AF0EE476A37EE277A2B
:10139400994277EEC77A83ED007A77EEA67AC3EDA9
:1013A400017AEFD1031DDFED307A434408F10808D8
:1013B40033ED017A984577EE877AF9D15346DDED1E
:1013C400326A9DED337A73B9C2ED006A82ED017A17
:1013D400C2ED027A6FE7FDEEC07A1C4617EE901A52
:1013E4004BF8231009E7F1EE666AB1EE477AF1EEA5
:1013F400677AC2ED006A82ED017AC2ED027A5AE799
:10140400B1EE477A82ED007A002C86D190E7F1EEB6
:10141400677A4EE7039B4FEA83096BE5689B022BCF
:101424000EDC002B13DC7FF446AFDFED0F7A3CE7D4
:10143400022A7FF4C3ADF7EE007A37EEC88ABDE521
:10144400689B032B7FF437AFDFED077AB6E753468B
:10145400DDED327A13B9002313606BE74FF00043DC
:10146400136065E7844800080000000010EE103A9D
:1014740033F000411A4627D0B1F1FF4F21D213F0C7
:10148400FF4F22D1DFED2B7A2B4A60EE277A904270
:1014940017EE903A33DB4CF2503CC3F3C75160452E
:1014A4001A46A1F1190116DDDFED247ADFED246A75
:1014B400002BB0EE677AB8BFF0EE667A27EE870AA3
:1014C400704730EE000A704770474CF2503C60455C
:1014D4004FEAD151E8DC0144FE29E5DC002915DCA2
:1014E40011F1160F19DB193122F0FF4242EAC15201
:1014F40007EE902A9FED130A27EE800A7047DFED6E
:10150400127A07EE103A27EE270A704722F0FF42BC
:1015140042EAC15300EE103A7047DFED0B7ADFED7B
:101524000B6A002BB0EE677AB8BFF0EE667A27EE4E
:10153400870A70470000004CB03CFFFFCAF24971B3
:10154400CAF249F1000000336042A20D6042A28D4C
:1015540010EE102AC2F3C7537F3B162B22F0004132
:1015640029DC002B104618DB1A4919410A4221D004
:10157400DFED197A70EE277AF5EEC07AF1EE10FA03
:1015840018DD002A04DA4FF4000242FA03F3184487
:1015940020EA010300EE103A7047DFED0F7A70EE97
:1015A400277AF5EEC07AF1EE10FA03DD002A08DBA3
:1015B4009FED0A0A7047B1F1FF4FFBD330EE000AEA
:1015C4007047DFED077A0029BFEE000A08BFB0EECE
:1015D400670A7047FFFF7F00CAF2497100000000EC
:1015E4000000008053B94AB9002908BF00281CBF75
:1015F4004FF0FF314FF0FF3000F00CB8ADF1080CA4
:101604006DE904CE02F0EBFDDDF804E0DDE9022330
:1016140004B07047704700BF014B1868704700BFA3
:101624000000002010B5054C237833B9044B13B1E6
:101634000448AFF300800123237010BDD0010020C3
:10164400000000008444000808B5034B1BB10349A3
:101654000348AFF3008008BD00000000D40100205F
:101664008444000872B6FEE700B595B03422002128
:1016740007A8FEF7A5FD00230293039304930593A3
:1016840006930093204A116C41F080511164126C4E
:1016940002F080520092009A01931C4B1A6842F4A3
:1016A40040421A601B6803F440430193019B0123E9
:1016B40007934FF48033089302230D934FF4800271
:1016C4000E9206220F92A822109211931293139352
:1016D40007A800F0D5FE98B90F23029302230393C1
:1016E400002304934FF4A05305934FF480530693BF
:1016F400052102A800F05AFD20B915B05DF804FBDD
:10170400FFF7B0FFFFF7AEFF003802400070004063
:1017140008B501F035FBFFF7A7FF00F00DF801F065
:1017240065FB00F039F800F057F801F079FB02F09E
:1017340017FD02F099F9FCE784B000220092154BE2
:10174400196B41F080011963196B01F0800100915C
:1017540000990192196B41F004011963196B01F0AE
:101764000401019101990292196B41F0020119637C
:10177400196B01F002010291029903921A6B42F073
:1017840001021A631B6B03F001030393039B04B070
:10179400704700BF0038024008B50D480D4B036088
:1017A4000223436000238360C3604FF4602202611C
:1017B4004FF480024261037643768376C3760377DF
:1017C400437700F013F900B908BDFFF74BFFFBE7BF
:1017D400180200200064004008B50D480D4B03605A
:1017E4000223436000238360C3604FF460220261DC
:1017F4004FF480024261037643768376C37603779F
:10180400437700F0F3F800B908BDFFF72BFFFBE7BF
:10181400F00100200068004010B58AB00023059351
:1018240006930793089309930368474A934204D0A5
:10183400464A93423ED00AB010BD454A136801336C
:101844001360012B29D000240194424B1A6B42F0FF
:1018540002021A631B6B03F002030193019B4FF412
:1018640040730593022306930323089309230993E2
:1018740005A9394801F026F822462146142001F032
:1018840031FA142001F03EFA22462146152001F0D7
:1018940029FA152001F036FACDE7002300932D4BE9
:1018A4001A6C42F000721A641B6C03F0007300930C
:1018B400009BC8E700230293264B1A6C42F0806217
:1018C4001A641B6C03F080630293029B204A136822
:1018D40001331360012B29D0002404941D4B1A6B8F
:1018E40042F002021A631B6B03F002030493049B8D
:1018F4004FF44053059302230693032308930923CB
:10190400099305A9144800F0DDFF22462146402032
:1019140001F0E8F9402001F0F5F922462146412082
:1019240001F0E0F9412001F0EDF984E7002303938D
:10193400084B1A6C42F000721A641B6C03F00073BB
:101944000393039BC8E700BF0064004000680040A5
:10195400EC0100200038024000040240FEE7FEE7EC
:10196400FEE7FEE7FEE770477047704708B501F0F1
:1019740021FA08BD08B5024800F0F0FA08BD00BF1E
:101984001802002008B5024800F0E8FA08BD00BFBC
:101994001802002008B5024800F0E0FA08BD00BFB4
:1019A400F001002008B5024800F0D8FA08BD00BFD5
:1019B400F001002082B0002100910B4B5A6C42F4DC
:1019C40080425A645A6C02F480420092009A019157
:1019D4001A6C42F080521A641B6C03F0805301931A
:1019E400019B02B0704700BF00380240002800F09D
:1019F400A18038B5044690F82030D3B1226813682A
:101A040043F00103136001F0E1F9054623685A68C5
:101A140012F0010F10D101F0D9F9401B0A28F5D9B1
:101A2400636A43F400336362052384F820300120A1
:101A340038BDFFF7F1FEE1E71A6822F002021A60EE
:101A440001F0C4F9054623685A6812F0020F0DD05C
:101A540001F0BCF9401B0A28F5D9636A43F400334A
:101A64006362052384F820300120E1E7227E012A05
:101A74003DD01A6822F080021A60637E012B3BD0AD
:101A84002268136823F040031360A37E012B39D02E
:101A94002268136823F020031360E37E012B37D000
:101AA4002268136843F010031360237F012B35D0A1
:101AB4002268136823F008031360637F012B33D07B
:101AC4002268136823F004031360A368E2681343D5
:101AD40022691343626913436268013A216813431C
:101AE400CB6100206062012384F82030A0E71A68EB
:101AF40042F080021A60C0E72268136843F0400392
:101B04001360C2E72268136843F020031360C4E73C
:101B14002268136823F010031360C6E72268136871
:101B240043F008031360C8E72268136843F0040312
:101B34001360CAE70120704790F82030013BDBB204
:101B4400012B05D9436A43F4802343620120704783
:101B540030B5464BD3F8002242F00102C3F800220C
:101B6400D3F8002222F47C52C3F80022D3F80022D6
:101B7400486A42EA0022C3F800224A6902F01F02BE
:101B8400012000FA02F2D3F81C026FEA020C20EAE8
:101B94000200C3F81C02CB69C3B9344BD3F80C025E
:101BA4000CEA0000C3F80C028C884869CD6844EA4A
:101BB4000544483043F830408C68088840EA0440C3
:101BC4004C6904F1480E03EBCE035860CB69012B3A
:101BD4001ED08B69002B33D12448D0F804320CEA90
:101BE4000303C0F804320B698BBB2048D0F81432CD
:101BF4000CEA0303C0F814320B6A012B2ED01B4AE3
:101C0400D2F8003223F00103C2F80032002030BDC4
:101C1400164BD3F80C021043C3F80C028C884869A5
:101C24000D6844EA0544483043F8304088894C69DB
:101C34008D6840EA0540483403EBC4035860C8E7A4
:101C44000A48D0F804321343C0F80432CBE70748FB
:101C5400D0F814321343C0F81432CDE70349D1F855
:101C64001C321343C1F81C32C9E700BF00640040B2
:101C740070B5044690F82050EDB2012D06D0436AA9
:101C840043F4002343620125284670BD022380F8F3
:101C940020300268136823F00103136001F096F802
:101CA400064623685B6813F0010F0CD001F08EF830
:101CB400831B0A2BF5D9636A43F40033636205235B
:101CC40084F82030E0E700256562DDE730B590F860
:101CD40020C00468A4680CF1FF3C5FFA8CFCBCF1E2
:101CE400010F62D814F0E05F59D0C4F3016C0124F1
:101CF40004FA0CF41C608B68002B3DD10D68CB6892
:101D0400046843EA45550CF118031B01E5500368C8
:101D14000C690CF1180E03EB0E135C600B7D012BA8
:101D240035D0D17993791B0443EA0163517943EAAD
:101D3400012314790168234301EB0C11C1F88C31A0
:101D4400D17893781B0443EA0163517843EA012371
:101D5400117802680B4302EB0C12C2F88831026856
:101D64000CF1180C4FEA0C1C52F80C3043F0010330
:101D740042F80C3000201DE04C6843EAC403CC68F0
:101D840023430CF11804240105682B51BFE70368B1
:101D940003EB0E13596841F480715960C1E7436A3B
:101DA40043F400134362012004E0436A43F48023B4
:101DB4004362012030BD90F820C00CF1FF3C5FFA73
:101DC4008CFCBCF1010F00F2A58030B451B9046859
:101DD400E46814F0030F10D1436A43F40013436220
:101DE40001207EE00468246914F0030F05D1436ADE
:101DF40043F400134362012073E0056801F11B04FE
:101E040024012C5904F004049460002C6BD105685F
:101E140001F11B0424012C59640D1460046801F1C0
:101E24001B0C4FEA0C1C54F80C4004F00204D46060
:101E34000468A444DCF8045015F0080F5BD00824AF
:101E44001461046801F11B0C04EB0C146468C4F302
:101E540007249461046804EB0C146468240C546132
:101E6400026802EB0112D2F8B8211A70026802EB80
:101E74000112D2F8B821C2F307225A70026802EBA9
:101E84000112D2F8B821C2F307429A70026802EB39
:101E94000112D2F8B821120EDA70026802EB0112B4
:101EA400D2F8BC211A71026802EB0112D2F8BC21EB
:101EB400C2F307225A71026802EB0112D2F8BC2164
:101EC400C2F307429A71026802EB0112D2F8BC21F4
:101ED400120EDA71C1B90268D36843F02003D360EB
:101EE400002030BC7047056801F11B0424012C5903
:101EF400E408546092E701F11B0504EB05146468DF
:101F040004F00F0414619CE70268136943F0200392
:101F14001361E5E7436A43F4802343620120704779
:101F240090F82030013BDBB2012B05D9436A43F41E
:101F34008023436201207047026853690B43536155
:101F4400002070477047704770477047704770476C
:101F54007047704770477047704770472DE9F84FD6
:101F6400054603685C69D3F804809F68D3F80CA025
:101F7400D3F81090D3F818B014F001063BD017F042
:101F8400010616D001229A6017F0020F08D117F04B
:101F9400040F0CD117F0080606D04FF4805608E061
:101FA400FFF7D0FF002604E0FFF7CFFF01E04FF476
:101FB400006617F4807F0DD02B684FF480729A600E
:101FC40017F4007F40F0968017F4806F00F096803D
:101FD40046F4005617F4803F0DD02B684FF480323E
:101FE4009A6017F4003F40F0938017F4802F00F0BC
:101FF400938046F4004614F0080F07D01AF0100F2F
:1020040004D046F400762B681022DA6014F0040F32
:1020140003D01AF0080F40F0898014F0020F05D0A5
:102024002B68DB6813F0030F40F0878014F0400F37
:1020340007D019F0100F04D046F480662B681022E4
:102044001A6114F0200F02D019F0080F79D114F09E
:10205400100F04D02B681B6913F0030F78D114F40C
:10206400003F02D018F0100F76D114F4803F02D054
:1020740018F0080F77D114F4004F37D018F0040F7C
:1020840031D014F4807F04D01BF0010F01D046F04E
:10209400010614F4007F04D01BF0020F01D046F0B7
:1020A400020614F4806F04D01BF0040F01D046F034
:1020B400040614F4006F16D01BF0700B13D0BBF1A0
:1020C400400F66D056D8BBF1200F5CD0BBF1300F67
:1020D4005CD0BBF1100F01D146F008062A68936961
:1020E40023F0700393612B6804225A60002E56D1AA
:1020F400BDE8F88F2846FFF726FF6BE717F4006F5B
:1021040002D046F4804665E72846FFF71FFF61E7E3
:102114002846FFF719FF6EE717F4002F02D046F4A4
:10212400803668E72846FFF712FF64E72B68082229
:10213400DA602846FFF70CFF6FE7284601F042F803
:1021440074E72B6808221A612846FFF703FF7EE72D
:102154002846FFF7FEFE82E72B6810225A602846C5
:10216400FFF7F9FE81E72B6808225A602846FFF73B
:10217400F3FE80E7BBF1500F0ED0BBF1600FADD181
:1021840046F48076AAE746F01006A7E746F0200654
:10219400A4E746F04006A1E746F080069EE76B6A96
:1021A40033436B622846FFF7D8FEA1E7002800F00E
:1021B4009B8070B50D4604464F4B1B6803F00F031C
:1021C4008B4208D2CBB24C4A1370136803F00F034E
:1021D4008B4240F08B80236813F0020F17D013F06A
:1021E400040F04D0454A936843F4E0539360236892
:1021F40013F0080F04D0414A936843F4604393609A
:102204003E4A936823F0F003A1680B43936023686C
:1022140013F0010F32D06368012B21D09A1E012ADA
:1022240025D9364A126812F0020F61D033498A6800
:1022340022F0030213438B6000F0C8FD06462F4BC7
:102244009B6803F00C036268B3EB820F16D000F0B6
:10225400BDFD801B41F288339842F0D9032042E04F
:10226400264A126812F4003FE0D101203BE0234AE1
:10227400126812F0007FD9D1012034E01E4B1B6894
:1022840003F00F03AB4207D9EAB21B4B1A701B6869
:1022940003F00F03AB422DD1236813F0040F06D0D3
:1022A400164A936823F4E053E1680B439360236870
:1022B40013F0080F07D0114A936823F4604321698F
:1022C40043EAC103936000F047F80C4B9B68C3F3E7
:1022D40003130B4AD35CD8400A4B18600A4B1868A6
:1022E40000F028FD002070BD012070470120FAE7AE
:1022F4000120F8E70120F6E7003C024000380240E4
:10230400C04800085800002054000020014B186801
:10231400704700BF5800002008B5FFF7F7FF044BD3
:102324009B68C3F38223034AD35CD84008BD00BF33
:1023340000380240B848000808B5FFF7E7FF044B2F
:102344009B68C3F34233034AD35CD84008BD00BF43
:1023540000380240B848000808B5464B9B6803F0B3
:102364000C03082B05D00C2B43D0042B7FD14248FF
:1023740019E0404B5A6802F03F025B6813F4800F87
:1023840012D03C4B5968C1F388113B480023A1FB90
:102394000001FFF727F9374B5B68C3F301430133AF
:1023A4005B00B0FBF3F008BD324B5868C0F38810F3
:1023B4004FEA401CBCEB000C6EEB0E0E4FEA8E1382
:1023C40043EA9C634FEA8C11B1EB0C0163EB0E03FF
:1023D400DB0043EA5173C90011EB000C43F1000325
:1023E400990200234FEA8C2041EA9C51FFF7FAF846
:1023F400D1E7204B5A6802F03F025B6813F4800F68
:1024040010D01C4B5968C1F388111B480023A1FB51
:102414000001FFF7E7F8174B5B68C3F30273B0FBE7
:10242400F3F0C0E7134B5868C0F388104FEA401C20
:10243400BCEB000C6EEB0E0E4FEA8E1343EA9C636A
:102444004FEA8C11B1EB0C0163EB0E03DB0043EAA2
:102454005173C90011EB000C43F1000399020023EE
:102464004FEA8C2041EA9C51FFF7BCF8D3E70348BC
:1024740099E700BF00380240001BB7000024F400B5
:10248400002800F0018270B582B00446036813F09E
:10249400010F41D0994B9B6803F00C03042B32D0FD
:1024A400964B9B6803F00C03082B27D0934B9B6837
:1024B40003F00C030C2B59D06368B3F5803F5BD059
:1024C400B3F5A02F5ED08D4B1A6822F480321A60C7
:1024D4001A6822F480221A606368002B5CD000F032
:1024E40075FC0546854B1B6813F4003F14D100F0BE
:1024F4006DFC401B6428F5D90320CCE17F4B5B685D
:1025040013F4800FD2D07D4B1B6813F4003F03D02B
:102514006368002B00F0BA81236813F0020F60D0C7
:10252400764B9B6813F00C0F4AD0744B9B6803F0F6
:102534000C03082B3FD0714B9B6803F00C030C2B4E
:1025440069D0E368002B75D06D4B01221A6000F04E
:102554003DFC0546694B1B6813F0020F61D100F086
:1025640035FC401B0228F5D9032094E1634B5B68DA
:1025740013F4800FA0D0C6E7604A136843F4803395
:102584001360A9E75D4B1A6842F480221A601A6846
:1025940042F480321A609FE700F018FC0546574B5E
:1025A4001B6813F4003FB7D000F010FC401B6428F4
:1025B400F5D903206FE1514B5B6813F4800FBAD156
:1025C4004E4B1B6813F0020F03D0E368012B40F05D
:1025D4005F814A4A136823F0F803216943EAC1037F
:1025E4001360236813F0080F49D06369002B33D0BC
:1025F400434B0122C3F8802E00F0E8FB05463F4B15
:102604005B6F13F0020F3AD100F0E0FB401B02288D
:10261400F5D903203FE1394B5B6813F4800F90D167
:10262400CEE7364A136823F0F803216943EAC1036D
:102634001360D6E7324B00221A6000F0C7FB054650
:102644002E4B1B6813F0020FCBD000F0BFFB401BD6
:102654000228F5D903201EE1294B0022C3F8802E5D
:1026640000F0B4FB0546254B5B6F13F0020F06D058
:1026740000F0ACFB401B0228F5D903200BE12368D2
:1026840013F0040F76D01D4B1B6C13F0805F33D115
:1026940000230193194B1A6C42F080521A641B6C8C
:1026A40003F080530193019B0125164B1B6813F41F
:1026B400807F29D0A368012B3AD0052B3ED00F4B45
:1026C4001A6F22F001021A671A6F22F004021A67C5
:1026D400A368002B3CD000F079FB0646074B1B6F28
:1026E40013F0020F45D100F071FB801B41F28833D7
:1026F4009842F3D90320CEE00025D6E70038024003
:1027040000004742007000406B4A136843F4807332
:10271400136000F05BFB0646674B1B6813F4807F75
:10272400C8D100F053FB801B0228F5D90320B2E086
:10273400624A136F43F001031367C9E75F4B1A6FD3
:1027440042F004021A671A6F42F001021A67BFE7E7
:1027540000F03CFB0646594B1B6F13F0020F08D0E8
:1027640000F034FB801B41F288339842F3D90320F4
:1027740091E0EDB9A369002B00F08C804F4A926878
:1027840002F00C02082A54D0022B17D04C4B002222
:102794001A6600F01BFB0446484B1B6813F0007FCD
:1027A40045D000F013FB001B0228F5D9032072E08A
:1027B400424A136C23F080531364DBE7404B00223E
:1027C4001A6600F003FB05463C4B1B6813F0007FC0
:1027D40006D000F0FBFA401B0228F5D903205AE08A
:1027E400E369226A1343626A43EA8213A26A5208C3
:1027F400013A43EA0243E26A43EA0263226B43EA90
:1028040002732E4A53602E4B01221A6600F0DEFA40
:1028140004462A4B1B6813F0007F06D100F0D6FA59
:10282400001B0228F5D9032035E0002033E0002006
:1028340031E0012B31D0214B5B6803F48001E26964
:1028440091422CD103F03F02216A8A4229D1616A64
:1028540047F6C0721A40B2EB811F24D103F4403111
:10286400A26A5208013AB1EB024F1ED103F0706222
:10287400E16AB2EB016F1AD103F0E043226BB3EBD0
:10288400027F16D1002006E001207047012002E0FB
:10289400012000E0002002B070BD0120FBE7012010
:1028A400F9E70120F7E70120F5E70120F3E701202C
:1028B400F1E70120EFE700BF00700040003802405C
:1028C4000000474200230F2B00F2E38070B582B072
:1028D40065E085684FEA430E032404FA0EF425EA02
:1028E4000405CC6804FA0EF42C438460446824EA9A
:1028F40002044A68C2F300129A40224342605CE038
:10290400DC08083450F8242003F00705AD004FF02C
:102914000F0E0EFA05FE22EA0E0E0A69AA4042EADA
:102924000E0240F824205CE0062200E0002202FAB5
:102934000EF22A430234574D45F82420564A94682F
:102944006FEA0C0224EA0C054E6816F4801F01D0CD
:102954004CEA0405504CA560E46802EA04054E689C
:1029640016F4001F01D04CEA04054B4CE560646882
:1029740002EA04054E6816F4003F01D04CEA04054F
:10298400454C6560246822404D6815F4803F01D0B1
:102994004CEA0402404C226001330F2B77D8012209
:1029A4009A400C6804EA020C32EA0404F4D14C683C
:1029B40004F00304013C012C8BD94A6802F00302A1
:1029C400032A09D0C4685D000322AA4024EA020451
:1029D4008A68AA402243C2604A6802F00302022ABB
:1029E4008ED004684FEA430E032202FA0EF224EA60
:1029F40002044A6802F0030202FA0EF22243026061
:102A04004A6812F4403FC7D000220192234A546C12
:102A140044F480445464526C02F480420192019A5A
:102A24009C08A51C1B4A52F8255003F0030E4FEADC
:102A34008E0E0F2202FA0EF225EA0205184A90427F
:102A44003FF474AF02F58062904216D002F58062C2
:102A5400904214D002F58062904212D002F5806256
:102A6400904210D002F5806290420ED002F580624E
:102A740090423FF459AF072259E7012257E7022257
:102A840055E7032253E7042251E705224FE702B03A
:102A940070BD704700380140003C014000380240DE
:102AA4000000024010B40368D9B210390A4AA2FBEC
:102AB40001421209094CA25CC2655F2907D96FF370
:102AC400090304338365806D5DF8044B70476FF32D
:102AD40009038365F7E700BFABAAAAAAB0480008B8
:102AE400836A826992B9012B0AD0022B02D00BB1FE
:102AF40000207047C36A13F0807F28D100207047FC
:102B0400C36AB3F1C07F24D000207047B2F5005FE0
:102B140009D0022B25D9032B25D1C36A13F0807F5A
:102B240023D100207047032B03D8DFE803F01404FB
:102B3400140A00207047C36A13F0807F0DD100206F
:102B44007047C36AB3F1C07F09D0002070470120E9
:102B54007047012070470120704701207047012011
:102B64007047012070470020704701207047000023
:102B740070B5044600F02AF9002C5BD00546022308
:102B840084F83530002384F834302268136823F045
:102B94000103136023681A6812F0010F0AD000F0D1
:102BA40015F9431B052BF5D920236365032084F80D
:102BB400350070BD1A68204911406268A06802435C
:102BC400E06802432069024360690243A06902434A
:102BD400E0690243206A02430A43616A04291ED061
:102BE4001A602668756925F00705636A1D43042B7E
:102BF40007D1A36A1D43E36A1BB12046FFF770FFA8
:102C040090B975612046FFF74DFFE26D3F23934075
:102C1400836000206065012384F83530C9E7E16AE8
:102C2400206B01430A43DBE740236365012084F8FA
:102C34003500BEE70120BCE73F8010F0002807DB29
:102C440000F01F02400901239340024A42F8203059
:102C5400704700BF00E100E0002808DB0901C9B2A9
:102C640000F1604000F5614080F80013704700F007
:102C74000F000901C9B2014B1954704714ED00E06B
:102C840000B500F00700C0F1070CBCF1040F28BF29
:102C94004FF0040C031D062B0FD9C31E4FF0FF3E4B
:102CA4000EFA0CF021EA000199400EFA03FE22EA22
:102CB4000E0241EA02005DF804FB0023EEE7000087
:102CC400074AD36823F4E0631B041B0C000200F4DE
:102CD400E060034343F0BF6343F40033D3607047C1
:102CE40000ED00E010B50446054BD868C0F302209F
:102CF400FFF7C6FF01462046FFF7AEFF10BD00BF39
:102D040000ED00E008B5FFF799FF08BD0138B0F108
:102D1400807F0BD24FF0E0235861054AF02182F8FE
:102D240023100020986107221A6170470120704720
:102D340000ED00E010B504460E4B1A784FF47A7398
:102D4400B3FBF2F30C4A1068B0FBF3F0FFF7DEFFBD
:102D540068B90F2C01D901200AE0002221464FF066
:102D6400FF30FFF7BFFF054B1C60002000E001208F
:102D740010BD00BF50000020580000205400002067
:102D840008B50B4B1A6842F400721A601A6842F4D0
:102D940080621A601A6842F480721A600320FFF796
:102DA4008FFF0F20FFF7C6FFFEF704FE002008BDCB
:102DB400003C0240034A1168034B1B780B44136028
:102DC400704700BF4002002050000020014B1868EB
:102DD400704700BF40020020034AD2F8883043F411
:102DE4007003C2F88830704700ED00E000B583B08E
:102DF40000210191094B1A6B42F400121A631B6BF8
:102E040003F400130193019B0A460C20FFF76AFFA9
:102E14000C20FFF777FF03B05DF804FB0038024095
:102E240008B50B480B4B03600B4B436000238360D6
:102E3400C3604FF480620261042242618361C36112
:102E440000F016F900B908BDFEF70CFCFBE700BF63
:102E5400A402002000480040A08601002DE9F047AC
:102E640088B00023039304930593069307930268A1
:102E7400364B9A4202D008B0BDE8F08704460025DC
:102E8400009503F5F8331A6C42F480221A641A6C24
:102E940002F480220092009A01951A6B42F0040217
:102EA4001A631A6B02F004020192019A02951A6BDA
:102EB40042F002021A631B6B03F002030293029BAB
:102EC400202303934FF0020ACDF810A04FF001091C
:102ED400CDF814904FF00308CDF818800727079712
:102EE40003A91B48FFF7EEFC4FF480660396CDF868
:102EF40010A0CDF81490CDF81880079703A91548B1
:102F0400FFF7E0FC1448154B03604FF00063436087
:102F14008560C5600661456185614FF48073C36156
:102F24004FF4403303624562FFF722FE58B90A4B5F
:102F3400E3639C63002211462720FFF7D3FE27207A
:102F4400FFF7E0FE97E7FEF78DFBF0E7004800404F
:102F540000080240000402404402002028600240AD
:102F640010B504460268136923F44053C1680B4347
:102F74001361836802691A4343691A43C3691A4394
:102F84000168CB6823F4164323F00C031343CB608E
:102F94000268536923F4407381690B4353610368E6
:102FA400314A934206D002F58062934202D0FFF781
:102FB400B3F901E0FFF7C0F9E369B3F5004F29D095
:102FC4000021031849411B1841F10001C90041EADD
:102FD4005371DB00181863684FEA83024FEA937356
:102FE40041F10001FEF7FEFA204AA2FB0031490933
:102FF400642303FB11031B013233A2FB03235B098C
:1030040003F0F00202EB011203F00F0321681344F2
:103014008B6010BD0023021843EB0301121841F129
:103024000001C90041EA5271D200101841F10001B7
:10303400626892185B41FEF7D5FA0C4AA2FB003194
:103044004909642303FB1103DB003233A2FB03238E
:103054005B095A0002F4F87202EB011203F0070351
:10306400216813448B60D4E7001001401F85EB51A5
:1030740060B310B5044690F8413013B3242384F8A8
:1030840041302268D36823F40053D3602046FFF70D
:1030940067FF2268136923F490431361226853691C
:1030A40023F02A0353612268D36843F40053D360A6
:1030B40000206064202384F8413084F84230606347
:1030C40010BD80F84030FFF7C9FED7E701207047F4
:1030D40010B58AB001220892002306930792009348
:1030E400019302930393059304930E4C694620467F
:1030F400FEF722FD2046FEF7BBFD02212046FEF727
:103104000FFF0E2309930593074C69462046FEF7EB
:1031140013FD2046FEF7ACFD02212046FEF700FF1A
:103124000AB010BD18020020F001002038B5FFF7E6
:10313400CFFF084D2846FEF79BFD074C2046FEF7BF
:1031440097FD02212846FEF7EBFE02212046FEF7FA
:10315400E7FE38BD18020020F001002030B587B02A
:1031640004461546009100210191029103910493B4
:1031740001236946FEF7AAFD10B9002007B030BD4F
:1031840002232A4669462046FEF7A0FD0028F4D013
:1031940004232A4669462046FEF798FDEDE710B55C
:1031A40088B00C46134601AA0021FEF704FE28B994
:1031B400019B23809DF8140008B010BD0020FBE79C
:1031C4007047000010B50446064B984203D0064BE6
:1031D4009C4203D010BD00F063F8F8E7FFF7F0FF5E
:1031E400F8E700BF18020020F001002038B50D4CAC
:1031F4006C252A4600212046FCF7E2FF2A460021DE
:103204006019FCF7DDFF01232370022384F83C30AE
:1032140084F85430032284F86C2084F8A83084F8AD
:10322400C03038BDEC02002010B5044610F0010F88
:1032340003D114F0020F07D110BD084901234B70CC
:10324400074800F0EDF8F4E70449012381F86D30F4
:103254006C31044800F0E4F8EEE700BFEC02002013
:1032640018020020F001002010B5044610F0010FF0
:1032740003D114F0020F05D110BD0549054800F033
:10328400AFF9F6E70449054800F0AAF9F4E700BFEE
:10329400EC0200201802002058030020F001002056
:1032A40000B585B000230193029301AA0DF10E012C
:1032B4000C4800F067FFBDF80E3083B99DF8043068
:1032C40003F00F03012B06D0032B08D101A90648F4
:1032D40000F041F803E001A9044800F03CF805B00F
:1032E4005DF804FB1802002058030020EC020020C3
:1032F400836E0365436EC364836D0364C36D43646B
:10330400036E8364704731EE601A30EE600A012365
:103314008340013B07EE903AF8EEE77A20EE270A65
:10332400C0EE017AFDEEE77A17EE900A704707EED9
:10333400900A70EEC00AF8EEE77A27EEA07A01232D
:103344008B40013B07EE903AF8EEE77AC7EE276A26
:1033540036EE800A7047F8B504460D460B7803F044
:103364000F0343600B781B0983604B78887840EA2D
:103374000320E060CB780F793F0947EA0317276100
:103384000E79360206F470664B791E43666110218D
:10339400F2EE090ABAEE090AFFF7C9FF84ED080A3A
:1033A4000C21F3EE0E0ABBEE0E0A3846FFF7BFFF00
:1033B40084ED090A0C21F2EE040ABAEE040A30463E
:1033C400FFF7B5FF84ED0A0AAB7907EE903AF8EE01
:1033D400677AC4ED0D7AEB7907EE903AF8EE677AE6
:1033E400C4ED0E7AF8BD00B583B01144FF238DF807
:1033F40000308DF801308DF802308DF803308DF8EF
:1034040004308DF805308DF80630FC238DF8073034
:1034140008236A4689B200F0B1FE03B05DF804FBEC
:1034240008B591F93C30012B09D0022B0FD02BB9F0
:1034340091F90010002289B2FFF7D5FF08BD91F978
:1034440000104FF4807289B2FFF7CDFFF6E791F9CF
:1034540000104FF4007289B2FFF7C5FFEEE70000D9
:103464002DE9F04F2DED048B85B000900191F0EE25
:10347400609AB0EE419AF0EE618AB0EE428A102072
:10348400B2EE091AFAEE090AFFF73DFF07461FFAE2
:1034940080FB0C20B3EE0E1AFBEE0E0AB0EE690AA6
:1034A400FFF731FF06461FFA80FADFED259A0C205C
:1034B4009FED241AF0EE690AB0EE490AFFF723FFE4
:1034C400054684B20C20B1EE041AF0EE690AB0EE9F
:1034D400680AFFF718FF80461FFA80F90C20B2EE45
:1034E400041AFAEE040AB0EE480AFFF70CFF4FEA9A
:1034F4001B2B8DF808B08DF809704FEA1A1A8DF855
:103504000AA0240A44EA06148DF80B408DF80C50E6
:103514004FEA19198DF80D90C0F3072343EA0813F5
:103524008DF80E308DF80F0008230DEB030201997E
:10353400009800F023FE05B0BDEC048BBDE8F08FCD
:10354400000000000000FA4300B585B08DED000ACC
:10355400CDED010A01F58071009B8DF80830C3F3AD
:1035640007228DF80920C3F307428DF80A20C3F31C
:1035740007638DF80B30019B8DF80C30C3F30722E1
:103584008DF80D20C3F307428DF80E20C3F30763B3
:103594008DF80F3008230DEB030289B200F0EEFD25
:1035A40005B05DF804FB00B585B08DED010A01F5A9
:1035B4000071019B8DF80C30C3F307228DF80D20A8
:1035C400C3F307428DF80E20C3F307638DF80F3061
:1035D400042303AA89B200F0D1FD05B05DF804FB11
:1035E40008B591F93C30012B12D0022B1AD073B9D3
:1035F40091F9003091ED122AD1ED141A91ED131ABC
:10360400D1ED110A91ED100A99B2FFF729FF08BD17
:1036140091F90030D1ED110A91ED100A99B2FFF73A
:1036240093FFF4E791F9003091ED110A99B2FFF795
:10363400BAFFECE710B4164B1B685C6944F0400415
:103644005C61DC6844F01004DC60124B1C68236885
:1036540023F00103236003E01C6824F001041C60D0
:103664000C4B1B681C6814F0010FF5D10A4C9C60CC
:10367400D86019615A601A6842F480221A60054BB6
:103684001A68136843F0010313605DF8044B704734
:10369400A4020020440200200448004008B5034965
:1036A4003222A1F13200FFF7C5FF08BD2E0400202D
:1036B4000B780F2B00D070470B7E002BFBD14B787F
:1036C4008A7843EA0223C3F30A03A3F580630380E1
:1036D4008A78CB785B0143EAD203C3F30A03A3F5E8
:1036E40080634380CA780B799B0043EA92134A793A
:1036F40043EA8223C3F30A03A3F5806383804A79F0
:103704008B79DB0143EA5203C3F30A03A3F5806315
:10371400C3808A79CB791B0143EA1213C3F30A03EA
:10372400A3F580630381CA790B7A5B0043EAD21361
:103734004A7A43EA4223C3F30A03A3F5806343812D
:103744004A7A8B7A9B0143EA9203DBB203730F2B11
:1037540019D0F02B03D09BB10123037301E00123A3
:1037640003738A7ACB7ADB0043EA5213DBB24373E6
:103774000F2B1AD0F02B09D0A3B10123437307E018
:1037840002230373EDE703230373EAE7012343737F
:103794000B7B83730F2B20D0F02B09D0D3B10123E3
:1037A400837307E002234373F2E703234373EFE7D2
:1037B400012383734A7B8B7B5B0143EAD203DBB235
:1037C400C3730F2B47D0F02B0AD0002B40D001231A
:1037D400C37307E002238373ECE703238373E9E7EE
:1037E4000123C3738A7BCB7B9B0043EA92130A7C3D
:1037F40043EA8223C3F30A03184A9382087C4B7C6E
:10380400DB0143EA5003C3F30A03D382487C8B7C75
:103814001B0143EA1013C3F30A031383887CCB7C94
:103824005B0043EAD013087D43EA4023C3F30A0351
:103834005383087D4B7D9B0143EA9003C3F30A0342
:103844009383487D8B7DDB0043EA5013D38332E7B7
:103854000223C373C6E70323C373C3E7D80300205B
:1038640004281AD804281AD8DFE800F003070B0F3D
:1038740013000C4BB3F9000070470A4BB3F9020074
:103884007047084BB3F904007047064BB3F90600C0
:103894007047044BB3F908007047002070470020BC
:1038A400704700BFC803002000B583B02F4B1B68CE
:1038B4001A6812F0200F09D0002200921A680092B0
:1038C4005B680093009B03B05DF804FB284A126810
:1038D40012F0100FF7D0002201921A6801925B686F
:1038E4000193019B234B1B681A6812F4002F1DD10E
:1038F4001A6822F001021A601E4802685368C3F174
:1039040032039BB21C490B8032215160116841F48F
:103914000021116001680A6842F001020A60192B53
:10392400D1D116491648FFF7C3FECCE71A6822F036
:1039340001021A600F490A685368C3F132039BB24B
:103944000D480380322050600E48826A22F400221F
:10395400826209680A6842F001020A60192BB2D136
:1039640009490748FFF7A4FEADE700BFA402002001
:103974000048004044020020C4030020FC0300204F
:10398400C8030020006002402E040020012070477C
:1039940008B50F4B18680F4BA3FB00308009FFF7E5
:1039A400B5F988B900230BE00B4803EB43024FEA57
:1039B400C20C00EBC202002140F80C101173013359
:1039C400072BF1DD002008BD4FF0FF30FBE700BFFF
:1039D40058000020D34D62106804002030B572B640
:1039E4001E4B93F800E0BEF1070F0DD880B179B1FA
:1039F4000023072B10D803EB430C194C54F83C401C
:103A040054B10133DBB2F4E762B64FF0FF301FE08C
:103A140062B66FF001001BE0072B1AD8104C03EBC1
:103A2400430504EBC50C44F83500CCF804100D49EB
:103A34000968CCF8081001218CF80C100020CCF88F
:103A44001000CCF814208E44044B83F800E062B6D6
:103A540030BD62B66FF00200FAE700BF64040020D4
:103A6400680400202805002038B51F4B1A681F4B36
:103A74001B689A4236D01C4B1A681C4B1A600024EF
:103A840001E00134E4B2072C2CD804EB4402D30047
:103A9400174AD258002AF4D004EB4403D800144B3C
:103AA40003441B7B002BECD00F4B186804EB44033E
:103AB4004FEAC30C0E4B63449D68401B5B68834212
:103AC400DFD8094B1D680A4804EB440C4FEACC03C9
:103AD40003449D601B694FEACC0C604401330361CD
:103AE4009047CEE7002038BD280500206004002060
:103AF40068040020704708B50320FFF7B5FB08BD34
:103B040008B500F0B5FA08BD0D4A1378591C1170B8
:103B1400092B00D8704710B586B00024147000F04B
:103B240061FA8DED010ACDED020A03940494059423
:103B3400044B1A6A0392D3F88C30049306B010BD78
:103B44002C050020EC02002008B5FFF721FF0A4AEB
:103B540001210A48FFF742FF094A05210948FFF7F6
:103B64003DFF094A0A210948FFF738FF084A642142
:103B74000848FFF733FF08BDD0480008F93A0008A9
:103B8400E0480008FB3A0008F4480008053B000838
:103B9400044900080D3B000830B52DED068B83B0B9
:103BA40004460D468DED000ACDED010A594B93E80C
:103BB400070084E80700DFED587AB4EEE71AF1EE67
:103BC40010FA08D9B0EE418AF0EE618AF4EEE71AF1
:103BD400F1EE10FA04D8204603B0BDEC068B30BDDC
:103BE400B0EE40AAF0EE609A20EE000A60EEA07AF1
:103BF40030EE270AFCF78CFBB0EE409A78EE687A38
:103C0400F0EEE77A38EE287ADFED436A77EEE67A6B
:103C1400F4EEC07AF1EE10FADDDC37EE267AB4EE7B
:103C2400C07AF1EE10FAD6D4F0EE4A0AB0EE690A80
:103C3400FCF76CFBF0EE40AA68EE087A29EE097AEC
:103C440077EE877A28EEA87A77EEC77A38EE087A84
:103C540027EE097A87EE870AF7EE007AB4EEE70AD0
:103C6400F1EE10FA4BDDB7EE000AFCF723FB7AEE17
:103C740080AAB0EE6A0AFCF7ADFBB0EE409AB0EE53
:103C84006A0AFCF767FB28EE099A39EE4A9A68EE4D
:103C9400000A70EEA90AC0EEA80A89EE280AFCF709
:103CA40035FBDFED1D7A70EE677AF4EEEA7AF1EE19
:103CB40010FA90DCD5ED007AF4EEEA7AF1EE10FA1F
:103CC40089D8D5ED017AF4EEEA7AF1EE10FA82DBC6
:103CD400D5ED027AF4EEC07AF1EE10FA3FF67BAF3E
:103CE400D5ED037AF4EEC07AF1EE10FAFFF673AF75
:103CF400C4ED00AA84ED010A012323726BE7FFEEF1
:103D0400007AB4EEE70AF1EE10FAAED5BFEE000A7F
:103D1400ABE700BF9C4400086F12833A58B110B45B
:103D24008446054CBCE80F000FC4DCF80030236067
:103D34005DF8044B7047704760000020014B187019
:103D4400597070475C00002030B52DED068B87B0AC
:103D5400002302930393424D2878FFF781FD044624
:103D64006878FFF77DFD04F5806307EE903AF8EE7E
:103D7400E77A9FED3C6A67EE867A77EEA77AF7EEEC
:103D8400006A77EEE67A00F5806307EE103AB8EE43
:103D9400C77A27EE067A37EE077A37EE667AB0EE00
:103DA400E76ADFED316AB4EEE66AF1EE10FA01D5A6
:103DB400DFED2E7AF0EEC76A9FED2B6AF4EEC66A49
:103DC400F1EE10FA01D59FED297A294BD3ED010AC2
:103DD400D3ED009A70EEE95A93ED03AA93ED029A9B
:103DE4003AEE496AF7EE006A37EEA60AF6EE007A72
:103DF40020EE270A20EE250A39EE800A8DED020A0C
:103E040037EE268A28EE278A28EE068A39EE088AB3
:103E14008DED038AD3ED048A70EEE80AFCF738FBD3
:103E240079EEA80AFCF716FB8DED020A7AEE680A11
:103E3400B0EE480AFCF72CFB79EE280AFCF70AFBE3
:103E44008DED030A02AB93E8030006AB03E903001C
:103E54009DED040ADDED050A07B0BDEC068B30BD0F
:103E64005C0000200000003ACDCC4C3D0000000076
:103E740060000020294BD3ED006A294BD3ED007A72
:103E840036EEE76AB0EEC67ADFED265AB4EEE57A8E
:103E9400F1EE10FA3ADDF0EE656A16EE103A002BF8
:103EA40001DADFED216A77EEA67A1D4BC3ED007AC5
:103EB4001A4B93ED016A1A4BD3ED017A76EE675AE9
:103EC400F0EEE56A9FED175AF4EEC56AF1EE10FACA
:103ED40020DDB0EE456A15EE903A002B01DA9FED35
:103EE400126A77EE867A0E4BC3ED017ADFED0F7A14
:103EF400B4EEE77AF1EE10FA07D5F4EEE76AF1EEE4
:103F040010FA02D50A4B00221A707047044BC3ED15
:103F1400006ACDE7024B83ED016AE7E774000020F5
:103F240080000020C2B8B23DC2B8B2BD6F12833A5D
:103F34002D05002008B50020FFF7F0FE0121002028
:103F4400FFF7FCFEFFF752F90320FFF76DF9024B70
:103F540000221A7008BD00BF2D05002030B52DEDDC
:103F6400028B85B08DED000ACDED010A02AD6B46E2
:103F740093E8030085E80300174CD4ED010A94ED9F
:103F8400048A70EEC80A9DED020AFCF781FAD4EDAA
:103F9400000A78EE200AFCF75DFA8DED020AD4EDF2
:103FA400030A70EEC80A9DED030AFCF771FAD4ED1A
:103FB400020A78EE200AFCF74DFA8DED030A074B4E
:103FC40095E8030083E80300054B01221A7005B04D
:103FD400BDEC028B30BD00BF600000208C000020CF
:103FE4002D05002000B52DED048B87B01C4BD3EDBF
:103FF400009A93ED019AB0EE690AFCF7EBF9DFED54
:10400400197A20EE278AB0EE490AFCF7E3F9DFEDCE
:10401400168A20EE280A38EE408A8DED028AB0EE28
:10402400690AFCF797F9DFED117A20EE278AB0EEE2
:10403400490AFCF78FF920EE280A38EE008A8DED44
:10404400038A02AB93E8030006AB03E903009DED8A
:10405400040ADDED050A07B0BDEC048B5DF804FB32
:10406400800000207B142E3E448B6C3E7B142EBEBD
:1040740010B586B0314B1B78A3B1314B3149DFED1C
:10408400321A9FED321A93ED000AD3ED010A03A808
:10409400FFF782FD9DF814308BB9284B02221A7069
:1040A40006B010BDFFF772FC0028F9D0FFF74CFEF4
:1040B4008DED010ACDED020AFFF750FFF0E7244B26
:1040C40006AA12E9070083E80700FFF7D3FE214B95
:1040D4001A68214CA2655B68C4F8C4302046FFF717
:1040E40007F904F16C00FFF703F90320FFF7BCF8AC
:1040F400124B1B78012BD3D1FFF774FF8DED010A0E
:10410400CDED020A0E4BD3ED007A37EEC00AD3EDA3
:10411400017A77EEE07A20EE000A67EEA77A30EEB5
:10412400270AFCF7F5F8DFED0D7AB4EEE70AF1EEB5
:1041340010FAB5D5014B00221A70B1E72D05002005
:104144008C00002020490008448B6C3E7B142E3EDA
:104154007400002080000020EC0200200AD7A33B5A
:1041640008B5FFF7F1FCFFF799FA00F003F8FFF741
:10417400E1FE08BD08B5FEF7D9FF08BD08B5FEF796
:10418400EDFF08BD08B5FFF70AF808BDDFF834D025
:10419400FEF722FE0C480D490D4A002302E0D458D4
:1041A400C4500433C4188C42F9D30A4A0A4C00237D
:1041B40001E013600432A242FBD3FCF753F8FDF78D
:1041C400A7FA70470000022000000020940000209D
:1041D400404900089400002030050020FEE72DE946
:1041E400F04786468C460846089E1546744619468E
:1041F400002B40F0C2808542B2FA82F245D94AB11E
:10420400C2F1200300FA02FC2EFA03F3954043EABC
:104214000C0C94404FEA154EA8B2BCFBFEF8230CDC
:104224000EFB18CC08FB00F943EA0C43994528D946
:10423400EB1808F1FF3704D2994502D9A8F1020717
:104244002B44A3EB0903A4B2B3FBFEFC0EFB1C330B
:104254000CFB00F044EA0344A04214D92C190CF1DD
:10426400FF3304D2A04202D9ACF102032C44241A35
:1042740043EA07401EB1D440002334607360BDE8B4
:10428400F0874746DDE76346F1E792BB431B012114
:104294004FEA154EAFB2B3FBFEFC200C0EFB1C33F1
:1042A4000CFB07F840EA0343984562D9EB180CF17C
:1042B400FF3004D2984502D9ACF102002B44A3EBA1
:1042C4000803A4B2B3FBFEFC0EFB1C330CFB07F784
:1042D40044EA0344A7424ED92C190CF1FF3304D20B
:1042E400A74202D9ACF102032C44E41B43EA004088
:1042F400C0E7C2F1200320FA03F1954090402EFA62
:1043040003F303434FEA154EAFB2B1FBFEFC0EFBC1
:104314001C10190C0CFB07F841EA0041884504FA0B
:1043240002F422D969180CF1FF3004D2884502D96D
:10433400ACF102002944A1EB08019BB2B1FBFEFCE5
:104344000EFB1C110CFB07F743EA01439F420ED9F5
:10435400EB180CF1FF3104D29F4202D9ACF10201F7
:104364002B44DB1B41EA004192E76046E3E76146E8
:10437400F7E76046A3E76346B7E7834206D916B971
:10438400002108467BE7C6E900E0F9E7B3FA83F7C2
:104394008FB9834201D3724508D8BEEB020460EBA7
:1043A400030301209C461EB9002168E73846FAE75A
:1043B400C6E9004CF8E7C7F1200CBB4022FA0CF424
:1043C4001C432EFA0CF120FA0CF3B84001434FEAD7
:1043D40014490EFA07F5B3FBF9F81FFA84FE09FB3A
:1043E40018300B0C08FB0EFA43EA00439A4502FA14
:1043F40007F240D9E31808F1FF3004D29A4502D9F4
:10440400A8F102002344A3EB0A0389B2B3FBF9F831
:1044140009FB183308FB0EFE41EA03418E452CD9F3
:10442400611808F1FF3304D28E4502D9A8F10203C2
:10443400214443EA0040A0FB0298A1EB0E01414550
:10444400CE46434602D306D14D4504D2B9EB020E03
:1044540068EB04030138002EA6D0B5EB0E0261EB25
:10446400030101FA0CFC22FA07F34CEA0303F940B6
:10447400C6E9003198E74046C5E74346D9E700005E
:10448400F8B500BFF8BC08BC9E467047F8B500BF3D
:08449400F8BC08BC9E4670470D
:10449C001E3691BFC2B8B2BF00000000DB0F49BF8F
:1044AC00E4CB1640E4CB16C000000080DB0F494083
:1044BC00DB0F49C0000FC93F000F494000CB9640AD
:1044CC00000FC9400053FB4000CB164100ED2F41BB
:1044DC00000F49410031624100537B41003A8A414F
:1044EC0000CB9641005CA34100EDAF41007EBC4186
:1044FC00000FC94100A0D5410031E24100C2EE419C
:10450C000053FB4100F20342003A0A42008310427E
:10451C0000CB164200141D42005C234200A5294228
:10452C0000ED2F4200363642007E3C4200C742422C
:10453C00000F4942A2000000F900000083000000B7
:10454C006E0000004E00000044000000150000004A
:10455C0029000000FC0000002700000057000000AC
:10456C00D1000000F500000034000000DD00000068
:10457C00C0000000DB00000062000000950000009D
:10458C00990000003C000000430000009000000077
:10459C0041000000FE00000051000000630000001C
:1045AC00AB000000DE000000BB000000C5000000F6
:1045BC0061000000B7000000240000006E00000045
:1045CC003A000000420000004D000000D200000044
:1045DC00E000000006000000490000002E00000072
:1045EC00EA00000009000000D10000009200000069
:1045FC001C000000FE0000001D000000EB0000008D
:10460C001C000000B100000029000000A700000001
:10461C003E000000E80000008200000035000000B1
:10462C00F50000002E000000BB000000440000005C
:10463C0084000000E90000009C00000070000000F5
:10464C0026000000B40000005F0000007E000000A7
:10465C00410000003900000091000000D60000006D
:10466C0039000000830000005300000039000000F6
:10467C00F40000009C000000840000005F000000BB
:10468C008B000000BD000000F900000028000000B5
:10469C003B0000001F000000F80000009700000025
:1046AC00FF000000DE000000050000009800000084
:1046BC000F000000EF0000002F00000011000000B0
:1046CC008B0000005A0000000A0000006D00000082
:1046DC001F0000006D000000360000007E0000008E
:1046EC00CF00000027000000CB00000009000000F4
:1046FC00B70000004F000000460000003F00000023
:10470C00660000009E0000005F000000EA00000050
:10471C002D0000007500000027000000BA0000000A
:10472C00C7000000EB000000E5000000F1000000F5
:10473C007B0000003D000000070000003900000075
:10474C00F70000008A0000005200000092000000F8
:10475C00EA0000006B000000FB0000005F0000009E
:10476C00B10000001F0000008D0000005D00000083
:10477C00080000005600000003000000300000009C
:10478C0046000000FC0000007B0000006B000000F5
:10479C00AB000000F0000000CF000000BC000000E7
:1047AC00200000009A000000F40000003600000019
:1047BC001D000000A9000000E300000091000000B3
:1047CC00610000005E000000E60000001B0000001D
:1047DC000800000065000000990000008500000042
:1047EC005F00000014000000A00000006800000042
:1047FC00400000008D000000FF000000D800000009
:10480C00800000004D000000730000002700000035
:10481C00310000000600000006000000150000003A
:10482C0056000000CA00000073000000A800000041
:10483C00C900000060000000E20000007B000000E6
:10484C00C00000008C0000006B0000003863ED3EDF
:10485C00DA0F493F5E987B3FDA0FC93F6937AC31BD
:10486C0068212233B40F14336821A23304000000F2
:10487C0007000000090000000000C93F0000F039EB
:10488C000000DA370000A2330000842E0000502B09
:10489C000000C2270000D0220000C41F0000C61B6D
:1048AC000000441700061016000610160000000049
:1048BC0001020304000000000000000001020304D8
:1048CC0006070809316D732046617374204C6F6FB5
:1048DC0070000000356D7320436F6E74726F6C2026
:1048EC004C6F6F700000000031306D732041726DA1
:1048FC0020557064617465003130306D73204465EF
:10490C00627567204F757470757400007B142E3EB1
:10491C00448B6C3E0BBEF5BFC2B8B2BE1E3611C086
:04492C00920A06BF26
:08493000B2F8FF7F0100000056
:044938004D16000810
:04493C002916000830
:10494000040000200000000094000020FC00002073
:1049500064010020000000000000000000000000D2
:104960000000000000000000000000000000000047
:104970000000000000000000000000000000000037
:104980000000000000000000000000000000000027
:1049900001000000100000000024F40000010000ED
:1049A0000AD7233D8FC2F53DEC5138BE295C8FBD3F
:1049B0000AD7233CDB0F493FDB0FC93F0100000052
:1049C000DB0F493FDB0FC93F010000000000000082
:0449D000CDCC4C3EC0
:04000005080041911D
:00000001FF
