:020000040800F2
:100000000000022051470008E5070008ED0700083E
:10001000F5070008FD0700080508000800000000BB
:100020000000000000000000000000000D080008B3
:100030001B08000800000000290800083908000813
:10004000A1470008A1470008A1470008A1470008F0
:10005000A1470008A1470008A1470008A1470008E0
:10006000A1470008A1470008A1470008A1470008D0
:10007000A1470008A1470008A1470008A1470008C0
:10008000A1470008A1470008A1470008A1470008B0
:100090005508000869080008A1470008A1470008A2
:1000A000A1470008A1470008A1470008A147000890
:1000B000A1470008A1470008A1470008A147000880
:1000C000A1470008A1470008A1470008A147000870
:1000D000A1470008A1470008A1470008193E0008F1
:1000E000A1470008A1470008A1470008A147000850
:1000F000A1470008A1470008A1470008A147000840
:10010000A1470008A1470008A1470008A14700082F
:10011000A1470008A1470008A1470008A14700081F
:10012000A1470008A1470008A1470008A14700080F
:10013000A14700080000000000000000A1470008DF
:100140007D08000891080008A1470008A1470008A1
:10015000A1470008A1470008A1470008A1470008DF
:10016000A1470008A1470008A1470008A1470008CF
:10017000A1470008A1470008A147000800000000AF
:1001800000000000A147000800000000000000007F
:10019000A14700080000000000000000A14700087F
:1001A000000000000000000000000000A14700085F
:1001B000A1470008A1470008A1470008A14700087F
:0401C000A14700084B
:1001C400830730B547D0541E002A3ED0CAB2034636
:1001D40001E0013C39D303F8012B9D07F9D1032C2D
:1001E4002CD9CDB205EB05250F2C05EB054535D9EA
:1001F400A4F1100222F00F0C03F1100EE6444FEAB2
:10020400121C1A46C2E90055C2E902551032724561
:10021400F8D10CF1010214F00C0F03EB021204F0FC
:100224000F0C13D0ACF1040323F003030433134481
:1002340042F8045B9342FBD10CF003042CB1C9B225
:100244001C4403F8011BA342FBD130BD6446134692
:10025400002CF4D1F9E703461446C0E71A46A44635
:10026400E0E700BF70B50F4B0F4DAB42A3EB0506A3
:1002740007D0B610002455F8043B01349847A64231
:10028400F9D804F0DDFB094D094B5E1BAB424FEA84
:10029400A60606D0002455F8043B01349847A6422C
:1002A400F9D870BDCC4A0008CC4A0008CC4A0008F2
:1002B400D04A000810EE102A10EE903A62F31E03A2
:1002C40000EE903AB0EE600A704700BF08B52DED1D
:1002D400028BF0EE408AB0EE608A00F033F820B969
:1002E400B0EE480ABDEC028B08BDB0EE480A00F03F
:1002F40029F820B1F4EEC88AF1EE10FAF0DDB0EE80
:10030400680ABDEC028B08BD08B52DED028BF0EE3A
:10031400408AB0EE608A00F015F820B9B0EE480AC1
:10032400BDEC028B08BDB0EE480A00F00BF820B11A
:10033400F4EEC88AF1EE10FAF0D5B0EE680ABDEC1E
:10034400028B08BD10EE103A33F000400ED0A0F539
:100354000003B3F1FE4F0DD3074B421E9A4207D957
:10036400A0F1FF40B0FA80F04009704702207047C6
:100374000320704704207047FEFF7F0053B94AB939
:10038400002908BF00281CBF4FF0FF314FF0FF3099
:1003940000F00CB8ADF1080C6DE904CE04F0FFF9DF
:1003A400DDF804E0DDE9022304B07047704700BFC4
:1003B40010B5054C237833B9044B13B10448AFF39B
:1003C40000800123237010BD2000002000000000E5
:1003D400444A000808B5034B1BB103490348AFF373
:1003E400008008BD0000000024000020444A0008EA
:1003F40080B500AF02F04AFA00F010F800F080F87F
:1004040002F0C8FA00F0C0F800F0F4F802F0E2FAE2
:1004140004F066F903F066FEFCE7000080B594B0D2
:1004240000AF07F11C03342200211846FFF7C8FE71
:1004340007F1080300221A605A609A60DA601A61B0
:1004440000237B60294B1B6C284A43F080531364C0
:10045400264B1B6C03F080537B607B6800233B605E
:10046400234B1B68224A43F440431360204B1B6810
:1004740003F440433B603B680123FB614FF480334A
:100484003B6202237B634FF48003BB630623FB635D
:10049400A8233B6402237B640223BB640223FB6422
:1004A40007F11C03184601F04DFB0346002B01D055
:1004B40000F020F80F23BB600223FB6000233B61A4
:1004C4004FF4A0537B614FF48053BB6107F10803E1
:1004D4000521184601F072F80346002B01D000F004
:1004E40009F800BF5037BD4680BD00BF0038024048
:1004F4000070004080B400AF72B600BF00BFFDE7DB
:1005040080B485B000AF0023FB601E4B1B6B1D4AFB
:1005140043F0800313631B4B1B6B03F08003FB60EE
:10052400FB680023BB60174B1B6B164A43F00403A4
:100534001363144B1B6B03F00403BB60BB68002301
:100544007B60104B1B6B0F4A43F0020313630D4B8C
:100554001B6B03F002037B607B6800233B60094B49
:100564001B6B084A43F001031363064B1B6B03F038
:1005740001033B603B6800BF1437BD465DF8047B54
:10058400704700BF0038024080B500AF174B184ACF
:100594001A60164B02225A60144B00229A60134BC5
:1005A4000022DA60114B4FF460221A610F4B4FF4B2
:1005B40080025A610D4B00221A760C4B00225A76A7
:1005C4000A4B00229A76094B0022DA76074B002266
:1005D4001A77064B00225A77044800F089F903463B
:1005E400002B01D0FFF786FF00BF80BD3C00002038
:1005F4000064004080B500AF174B184A1A60164BD0
:1006040002225A60144B00229A60134B0022DA60D3
:10061400114B4FF460221A610F4B4FF480025A6160
:100624000D4B00221A760C4B00225A760A4B0022FC
:100634009A76094B0022DA76074B00221A77064B8A
:1006440000225A77044800F053F90346002B01D0E6
:10065400FFF750FF00BF80BD640000200068004029
:1006640080B58CB000AF786007F11C0300221A60DB
:100674005A609A60DA601A617B681B68534A934235
:1006840046D1534B1B680133514A1360504B1B68CE
:10069400012B0DD10023BB614E4B1B6C4D4A43F023
:1006A400007313644B4B1B6C03F00073BB61BB6999
:1006B40000237B61474B1B6B464A43F002031363E1
:1006C400444B1B6B03F002037B617B694FF4407363
:1006D400FB6102233B6200237B620323BB62092389
:1006E400FB6207F11C0319463B4801F0C9FC0022D8
:1006F4000021142002F093F8142002F0ACF8002238
:100704000021152002F08BF8152002F0A4F858E01F
:100714007B681B68314A934253D100233B612D4BC4
:100724001B6C2C4A43F0806313642A4B1B6C03F04C
:1007340080633B613B69264B1B680133244A136089
:10074400234B1B68012B0DD10023FB60214B1B6C39
:10075400204A43F0007313641E4B1B6C03F00073B8
:10076400FB60FB680023BB601A4B1B6B194A43F008
:1007740002031363174B1B6B03F00203BB60BB68DC
:100784004FF44053FB6102233B6200237B6203234B
:10079400BB620923FB6207F11C0319460E4801F0F2
:1007A4006FFC00220021402002F039F8402002F0C2
:1007B40052F800220021412002F031F8412002F0D9
:1007C4004AF800BF3037BD4680BD00BF006400401A
:1007D4008C00002000380240000402400068004001
:1007E40080B400AF00BFFDE780B400AF00BFFDE7F9
:1007F40080B400AF00BFFDE780B400AF00BFFDE7E9
:1008040080B400AF00BFFDE780B400AF00BFBD46B9
:100814005DF8047B704780B400AF00BFBD465DF84F
:10082400047B704780B400AF00BFBD465DF8047B15
:100834007047000080B500AF02F07AF8034B1B68E4
:100844000133024A136000BF80BD00BFB002002024
:1008540080B500AF024800F081FC00BF80BD00BF3E
:100864003C00002080B500AF024800F077FC00BFD8
:1008740080BD00BF3C00002080B500AF024800F0FE
:100884006DFC00BF80BD00BF6400002080B500AFD8
:10089400024800F063FC00BF80BD00BF640000207C
:1008A40080B483B000AF00237B60104B5B6C0F4AB5
:1008B40043F4804353640D4B5B6C03F480437B60CF
:1008C4007B6800233B60094B1B6C084A43F0805350
:1008D4001364064B1B6C03F080533B603B6800BF02
:1008E4000C37BD465DF8047B704700BF00380240FA
:1008F40080B584B000AF78607B68002B01D1012300
:10090400EDE07B6893F82030DBB2002B02D17868ED
:10091400FFF7A6FE7B681B681A687B681B6842F0B9
:1009240001021A6002F018F8F86012E002F014F8FC
:100934000246FB68D31A0A2B0BD97B685B6A43F423
:1009440000327B685A627B68052283F820200123E9
:10095400C5E07B681B685B6803F00103002BE5D0EE
:100964007B681B681A687B681B6822F002021A60A5
:1009740001F0F2FFF86012E001F0EEFF0246FB68BE
:10098400D31A0A2B0BD97B685B6A43F400327B6869
:100994005A627B68052283F8202001239FE07B684C
:1009A4001B685B6803F00203002BE5D17B681B7EA8
:1009B400012B08D17B681B681A687B681B6842F0AE
:1009C40080021A6007E07B681B681A687B681B68F2
:1009D40022F080021A607B685B7E012B08D17B6861
:1009E4001B681A687B681B6842F040021A6007E0C3
:1009F4007B681B681A687B681B6822F040021A60D7
:100A04007B689B7E012B08D17B681B681A687B6816
:100A14001B6842F020021A6007E07B681B681A68B2
:100A24007B681B6822F020021A607B68DB7E012B46
:100A340008D17B681B681A687B681B6822F0100267
:100A44001A6007E07B681B681A687B681B6842F0C1
:100A540010021A607B681B7F012B08D17B681B681E
:100A64001A687B681B6842F008021A6007E07B681A
:100A74001B681A687B681B6822F008021A607B688E
:100A84005B7F012B08D17B681B681A687B681B6835
:100A940042F004021A6007E07B681B681A687B68EE
:100AA4001B6822F004021A607B689A687B68DB6822
:100AB4001A437B681B691A437B685B6942EA03013A
:100AC4007B685B685A1E7B681B680A43DA617B6833
:100AD40000225A627B68012283F8202000231846F2
:100AE4001037BD4680BD000080B487B000AF786089
:100AF40039607B6893F82030FB75FB7D012B03D0B4
:100B0400FB7D022B40F0BE80654B3B613B69D3F813
:100B1400003243F001023B69C3F800223B69D3F879
:100B2400003223F47C523B69C3F800223B69D3F8BA
:100B340000223B685B6A1B021A433B69C3F800222C
:100B44003B685B6903F01F03012202FA03F3FB60B5
:100B54003B69D3F81C22FB68DB431A403B69C3F8AA
:100B64001C223B68DB69002B23D13B69D3F80C22A0
:100B7400FB68DB431A403B69C3F80C223B68DB6823
:100B840019043B685B689BB23A68526919433B6934
:100B9400483243F832103B689B6819043B681B6871
:100BA4009AB23B685B690A4339694833DB000B44FA
:100BB4005A603B68DB69012B22D13B69D3F80C22D4
:100BC400FB681A433B69C3F80C223B681B68190491
:100BD4003B685B689BB23A68526919433B69483287
:100BE40043F832103B689B6819043B68DB689AB28F
:100BF4003B685B690A4339694833DB000B445A603C
:100C04003B689B69002B09D13B69D3F80422FB683C
:100C1400DB431A403B69C3F8042207E03B69D3F87D
:100C24000422FB681A433B69C3F804223B681B692E
:100C3400002B09D13B69D3F81422FB68DB431A402B
:100C44003B69C3F8142207E03B69D3F81422FB681C
:100C54001A433B69C3F814223B681B6A012B07D172
:100C64003B69D3F81C22FB681A433B69C3F81C2276
:100C74003B69D3F8003223F001023B69C3F8002238
:100C8400002306E07B685B6A43F480227B685A6237
:100C9400012318461C37BD465DF8047B704700BF2E
:100CA4000064004080B584B000AF78607B6893F83E
:100CB4002030DBB2012B2ED17B68022283F8202066
:100CC4007B681B681A687B681B6822F001021A6043
:100CD40001F042FEF86012E001F03EFE0246FB68BD
:100CE400D31A0A2B0BD97B685B6A43F400327B6806
:100CF4005A627B68052283F82020012312E07B6876
:100D04001B685B6803F00103002BE5D17B680022BC
:100D14005A62002306E07B685B6A43F400227B6826
:100D24005A62012318461037BD4680BD80B489B08D
:100D340000AFF860B9607A603B60FB6893F82030DC
:100D4400FB77FB681B689B68BB61FB7F012B03D0AF
:100D5400FB7F022B40F0AD80BB6903F08063002B66
:100D64000AD1BB6903F00063002B05D1BB6903F012
:100D74008053002B00F09580BB691B0E03F0030326
:100D84007B6101227B699A403B681A60BB689B685F
:100D9400002B0DD1BB681B685A05BB68DB68F9687A
:100DA40009681A437B6918331B010B441A600FE06E
:100DB400BB685B68DA00BB689B681A43BB68DB6886
:100DC400F96809681A437B6918331B010B441A60DC
:100DD400FB681968BB681A697B6918331B010B44EB
:100DE40004331A60BB681B7D012B11D1FB681A68A0
:100DF4007B6918331B01134404331B68FA681168B8
:100E040043F480727B6918331B010B4404331A606A
:100E14007B6807331B781A067B6806331B781B0430
:100E24001A437B6805331B781B0213437A68043228
:100E340012781046FA68116843EA00027B691B01C4
:100E44000B4403F5C6731A607B6803331B781A06D8
:100E54007B6802331B781B041A437B6801331B78BD
:100E64001B0213437A6812781046FA68116843EA41
:100E740000027B691B010B4403F5C4731A60FB6811
:100E84001A687B6918331B0113441B68FA681168DC
:100E940043F001027B6918331B010B441A600023E1
:100EA4000EE0FB685B6A43F40012FB685A6201239C
:100EB40006E0FB685B6A43F48022FB685A62012304
:100EC40018462437BD465DF8047B704780B487B06C
:100ED40000AFF860B9607A603B60FB6893F820303B
:100EE400FB75FB7D012B03D0FB7D022B40F00381BE
:100EF400BB68002B0ED1FB681B68DB6803F003039F
:100F0400002B16D1FB685B6A43F40012FB685A623B
:100F14000123F7E0FB681B681B6903F00303002B44
:100F240007D1FB685B6A43F40012FB685A62012331
:100F3400E8E0FB681A68BB681B331B0113441B6899
:100F440003F004027B689A607B689B68002B0CD1D9
:100F5400FB681A68BB681B331B0113441B685B0DD9
:100F6400C3F30A027B681A600BE0FB681A68BB686B
:100F74001B331B0113441B68DB0823F060427B68AE
:100F84005A60FB681A68BB681B331B0113441B6857
:100F940003F002027B68DA60FB681A68BB681B33E3
:100FA4001B01134404331B6803F00803002B03D014
:100FB4007B6808221A610BE0FB681A68BB681B3364
:100FC4001B01134404331B6803F00F027B681A618E
:100FD400FB681A68BB681B331B01134404331B688A
:100FE4001B0ADAB27B689A61FB681A68BB681B3318
:100FF4001B01134404331B681B0C9AB27B685A61AF
:10100400FB681A68BB681B01134403F5DC731B6897
:10101400DAB23B681A70FB681A68BB681B01134498
:1010240003F5DC731B681A0A3B680133D2B21A70E9
:10103400FB681A68BB681B01134403F5DC731B6867
:101044001A0C3B680233D2B21A70FB681A68BB6888
:101054001B01134403F5DC731B681A0E3B6803334E
:10106400D2B21A70FB681A68BB681B01134403F5FB
:10107400DE731A683B680433D2B21A70FB681A68CC
:10108400BB681B01134403F5DE731B681A0A3B6833
:101094000533D2B21A70FB681A68BB681B0113448B
:1010A40003F5DE731B681A0C3B680633D2B21A7060
:1010B400FB681A68BB681B01134403F5DE731B68E5
:1010C4001A0E3B680733D2B21A70BB68002B08D1E2
:1010D400FB681B68DA68FB681B6842F02002DA6070
:1010E40007E0FB681B681A69FB681B6842F0200272
:1010F4001A61002306E0FB685B6A43F48022FB6804
:101104005A62012318461C37BD465DF8047B7047BC
:1011140080B485B000AF786039607B6893F8203084
:10112400FB73FB7B012B02D0FB7B022B09D17B6879
:101134001B6859697B681B683A680A435A61002333
:1011440006E07B685B6A43F480227B685A62012371
:1011540018461437BD465DF8047B704780B58AB0E5
:1011640000AF786000237B627B681B685B693B622D
:101174007B681B685B68FB617B681B689B68BB6161
:101184007B681B68DB687B617B681B681B693B6150
:101194007B681B689B69FB603B6A03F00103002BBF
:1011A4007CD0BB6903F00103002B23D07B681B6850
:1011B40001229A60BB6903F00203002B03D0786814
:1011C40000F083F916E0BB6903F00403002B04D09C
:1011D4007B6A43F400637B620CE0BB6903F00803A1
:1011E400002B04D07B6A43F480537B6202E078686E
:1011F40000F089F9BB6903F48073002B24D07B6869
:101204001B684FF480729A60BB6903F40073002B6F
:1012140003D0786800F063F916E0BB6903F48063D7
:10122400002B04D07B6A43F400537B620CE0BB695F
:1012340003F40063002B04D07B6A43F480437B6295
:1012440002E0786800F069F9BB6903F48033002B8D
:1012540024D07B681B684FF480329A60BB6903F426
:101264000033002B03D0786800F043F916E0BB6923
:1012740003F48023002B04D07B6A43F400437B6295
:101284000CE0BB6903F40023002B04D07B6A43F415
:1012940080337B6202E0786800F049F93B6A03F02E
:1012A4000803002B0CD07B6903F01003002B07D03C
:1012B4007B6A43F400737B627B681B681022DA60EC
:1012C4003B6A03F00403002B0BD07B6903F0080393
:1012D400002B06D07B681B680822DA60786800F06F
:1012E40030F93B6A03F00203002B09D07B681B68CA
:1012F400DB6803F00303002B02D0786801F0A0FF41
:101304003B6A03F04003002B0CD03B6903F010034D
:10131400002B07D07B6A43F480637B627B681B6885
:1013240010221A613B6A03F02003002B0BD03B69A7
:1013340003F00803002B06D07B681B6808221A619F
:10134400786800F012F93B6A03F01003002B09D00F
:101354007B681B681B6903F00303002B02D07868C9
:1013640000F0F9F83B6A03F40033002B0BD0FB695F
:1013740003F01003002B06D07B681B6810225A6010
:10138400786800F0FCF83B6A03F48033002B0BD040
:10139400FB6903F00803002B06D07B681B68082256
:1013A4005A60786800F0F5F83B6A03F40043002BB8
:1013B4007BD0FB6903F00403002B72D03B6A03F477
:1013C4008073002B08D0FB6803F00103002B03D0CB
:1013D4007B6A43F001037B623B6A03F40073002BD6
:1013E40008D0FB6803F00203002B03D07B6A43F0B0
:1013F40002037B623B6A03F48063002B08D0FB6822
:1014040003F00403002B03D07B6A43F004037B62E4
:101414003B6A03F40063002B43D0FB6803F07003C2
:10142400002B3ED0FB6803F07003602B2BD0602BA5
:101434002ED8502B22D0502B2AD8402B19D0402BF9
:1014440026D8302B10D0302B22D8102B02D0202BB2
:1014540005D01DE07B6A43F008037B6219E07B6AD8
:1014640043F010037B6214E07B6A43F020037B6249
:101474000FE07B6A43F040037B620AE07B6A43F03F
:1014840080037B6205E07B6A43F480737B6200E047
:1014940000BF7B681B689A697B681B6822F0700236
:1014A4009A617B681B6804225A607B6A002B08D00F
:1014B4007B685A6A7B6A1A437B685A62786800F0D0
:1014C40072F800BF2837BD4680BD80B483B000AF3A
:1014D400786000BF0C37BD465DF8047B704780B46C
:1014E40083B000AF786000BF0C37BD465DF8047B65
:1014F400704780B483B000AF786000BF0C37BD463E
:101504005DF8047B704780B483B000AF786000BF9F
:101514000C37BD465DF8047B704780B483B000AFE0
:10152400786000BF0C37BD465DF8047B704780B41B
:1015340083B000AF786000BF0C37BD465DF8047B14
:10154400704780B483B000AF786000BF0C37BD46ED
:101554005DF8047B704780B483B000AF786000BF4F
:101564000C37BD465DF8047B704780B483B000AF90
:10157400786000BF0C37BD465DF8047B704780B4CB
:1015840083B000AF786000BF0C37BD465DF8047BC4
:10159400704780B483B000AF786000BF0C37BD469D
:1015A4005DF8047B704780B483B000AF786000BFFF
:1015B4000C37BD465DF8047B7047000080B584B0ED
:1015C40000AF786039607B68002B01D10123CCE047
:1015D400684B1B6803F00F033A689A420CD9654BB9
:1015E4003A68D2B21A70634B1B6803F00F033A686F
:1015F4009A4201D00123B8E07B681B6803F0020320
:10160400002B20D07B681B6803F00403002B05D05B
:10161400594B9B68584A43F4E05393607B681B68BA
:1016240003F00803002B05D0534B9B68524A43F444
:1016340060439360504B9B6823F0F0027B689B6887
:101644004D4913438B607B681B6803F00103002B37
:1016540044D07B685B68012B07D1474B1B6803F4BC
:101664000033002B19D101237FE07B685B68022BD8
:1016740003D07B685B68032B07D13F4B1B6803F0E7
:101684000073002B09D101236FE03B4B1B6803F06F
:101694000203002B01D1012367E0374B9B6823F041
:1016A40003027B685B68344913438B6001F054F98F
:1016B400F8600AE001F050F90246FB68D31A41F2DF
:1016C4008832934201D903234FE02B4B9B6803F0EC
:1016D4000C027B685B689B009A42EBD1254B1B682C
:1016E40003F00F033A689A420CD2224B3A68D2B202
:1016F4001A70204B1B6803F00F033A689A4201D01A
:10170400012332E07B681B6803F00403002B08D03C
:10171400194B9B6823F4E0527B68DB68164913433A
:101724008B607B681B6803F00803002B09D0124B05
:101734009B6823F460427B681B69DB000E491343FA
:101744008B6000F055F802460B4B9B681B0903F0B5
:101754000F030A49CB5C22FA03F3094A1360094BCD
:101764001B68184601F0B4F8002318461037BD462C
:1017740080BD00BF003C024000380240AC4A000873
:10178400080000200000002080B400AF034B1B6859
:101794001846BD465DF8047B704700BF0800002072
:1017A40080B500AFFFF7F0FF0246054B9B689B0A2C
:1017B40003F007030349CB5C22FA03F3184680BD08
:1017C40000380240BC4A000880B500AFFFF7DCFFD8
:1017D4000246054B9B685B0B03F007030349CB5C94
:1017E40022FA03F3184680BD00380240BC4A0008C0
:1017F4002DE9B04FA6B000AF0023C7F88C3000230A
:10180400C7F894300023C7F888300023C7F8843021
:101814000023C7F89030C84B9B6803F00C030C2BD3
:1018240000F27E8101A252F823F000BF651800087F
:10183400251B0008251B0008251B00086D1800083F
:10184400251B0008251B0008251B00087518000827
:10185400251B0008251B0008251B0008DF190008AC
:10186400B64BC7F890305FE1B54BC7F890305BE1F9
:10187400B14B5B6803F03F03C7F88C30AE4B5B6839
:1018840003F48003002B31D0AB4B5B689B0900222F
:10189400BB66FA66BB6EC3F308033B6600237B6634
:1018A400A74BD7E918452A4603FB02F20023214639
:1018B40001FB03F31344A24A2146A1FB0212FA6777
:1018C4000A46BA67FA6F1344FB67D7F88C300022D4
:1018D400BB65FA65D7E91623D7E91E01FEF74EFD6D
:1018E40002460B461346C7F8943064E0924B5B689B
:1018F4009B0900223B657A653B6DC3F30803BB6417
:101904000023FB64D7E9124522462B464FF0000022
:101914004FF00001590141EAD261500102460B46E1
:101924002146511A3961294663EB01037B614FF06B
:1019340000024FF00003D7E904AB59468B0151462E
:1019440043EA916351468A015146B2EB0108594674
:1019540063EB01094FF000024FF000034FEAC903A3
:1019640043EA58734FEAC80290469946234618EB57
:101974000303BB602B4649EB0303FB604FF00002FB
:101984004FF00003D7E9024529468B02214643EA7A
:10199400915321468A0210461946D7F88C3000220A
:1019A4003B647A64D7E91023FEF7E8FC02460B4651
:1019B4001346C7F89430604B5B681B0C03F00303B9
:1019C40001335B00C7F88830D7F89420D7F8883003
:1019D400B2FBF3F3C7F89030A6E0574B5B6803F013
:1019E4003F03C7F88C30544B5B6803F48003002B2F
:1019F4002AD0514B5B689B090022BB63FA63BB6B23
:101A0400C3F3080000214E4B03FB01F2002300FB4B
:101A140003F313444A4AA0FB02127A670A463A6760
:101A24007A6F13447B67D7F88C3000223B637A6368
:101A3400D7E90C23D7E91C01FEF7A0FC02460B46AC
:101A44001346C7F894305BE03B4B5B689B0900226C
:101A5400BB62FA62BB6AC3F308033B6200237B6286
:101A6400D7E9088942464B464FF000004FF0000189
:101A7400590141EAD261500102460B464146B2EB9C
:101A8400010A494663EB010B4FF000024FF00003DB
:101A94004FEA8B1343EA9A634FEA8A12B2EB0A04C1
:101AA40063EB0B054FF000024FF00003EB0043EA39
:101AB4005473E20014461D464346E3183B604B460C
:101AC40045EB03037B604FF000024FF00003D7E9BE
:101AD400004529468B02214643EA915321468A0256
:101AE40010461946D7F88C300022BB61FA61D7E959
:101AF4000623FEF743FC02460B461346C7F8943010
:101B04000D4B5B681B0F03F00703C7F88430D7F84D
:101B14009420D7F88430B2FBF3F3C7F8903003E095
:101B2400064BC7F8903000BFD7F890301846983766
:101B3400BD46BDE8B08F00BF003802400024F40069
:101B4400001BB70080B586B000AF78607B68002BBF
:101B540001D101238DE27B681B6803F00103002B94
:101B640000F08380944B9B6803F00C03042B19D082
:101B7400914B9B6803F00C03082B06D18E4B5B68DA
:101B840003F48003B3F5800F0CD08B4B9B6803F0F8
:101B94000C030C2B12D1884B5B6803F48003B3F560
:101BA400800F0BD1844B1B6803F40033002B5BD0F4
:101BB4007B685B68002B57D101235AE27B685B6822
:101BC400B3F5803F06D17C4B1B687B4A43F48033DA
:101BD40013601DE07B685B68B3F5A02F0CD1764BD6
:101BE4001B68754A43F480231360734B1B68724A65
:101BF40043F4803313600BE06F4B1B686E4A23F48D
:101C0400803313606C4B1B686B4A23F4802313608E
:101C14007B685B68002B13D000F09EFE386108E0FF
:101C240000F09AFE02463B69D31A642B01D90323C0
:101C34001FE2614B1B6803F40033002BF0D014E067
:101C440000F08AFE386108E000F086FE02463B6937
:101C5400D31A642B01D903230BE2574B1B6803F4FB
:101C64000033002BF0D100E000BF7B681B6803F059
:101C74000203002B6FD0504B9B6803F00C03002B26
:101C840017D04D4B9B6803F00C03082B05D14A4B2E
:101C94005B6803F48003002B0BD0474B9B6803F075
:101CA4000C030C2B1CD1444B5B6803F48003002B06
:101CB40016D1414B1B6803F00203002B05D07B684F
:101CC400DB68012B01D00123D3E13B4B1B6823F0DC
:101CD400F8027B681B69DB00374913430B603AE069
:101CE4007B68DB68002B20D0344B01221A6000F0A3
:101CF40033FE386108E000F02FFE02463B69D31A38
:101D0400022B01D90323B4E12B4B1B6803F002031C
:101D1400002BF0D0284B1B6823F0F8027B681B696A
:101D2400DB00254913430B6015E0244B00221A60A5
:101D340000F012FE386108E000F00EFE02463B6936
:101D4400D31A022B01D9032393E11B4B1B6803F025
:101D54000203002BF0D17B681B6803F00803002BFF
:101D640036D07B685B69002B16D0154B01221A60B4
:101D740000F0F2FD386108E000F0EEFD02463B6938
:101D8400D31A022B01D9032373E10B4B5B6F03F0CE
:101D94000203002BF0D01BE0094B00221A6000F074
:101DA400DBFD38610EE000F0D7FD02463B69D31A33
:101DB400022B07D903235CE10038024000004742AC
:101DC400800E47428A4B5B6F03F00203002BEAD17B
:101DD4007B681B6803F00403002B00F0978000234A
:101DE400FB75834B1B6C03F08053002B0FD1002336
:101DF400BB607F4B1B6C7E4A43F0805313647C4B67
:101E04001B6C03F08053BB60BB680123FB75794BEB
:101E14001B6803F48073002B18D1764B1B68754A3A
:101E240043F48073136000F097FD386108E000F01C
:101E340093FD02463B69D31A022B01D9032318E10F
:101E44006C4B1B6803F48073002BF0D07B689B6899
:101E5400012B06D1664B1B6F654A43F001031367E0
:101E64001CE07B689B68052B0CD1614B1B6F604A9F
:101E740043F0040313675E4B1B6F5D4A43F0010399
:101E840013670BE05A4B1B6F594A23F00103136786
:101E9400574B1B6F564A23F0040313677B689B68F8
:101EA400002B15D000F058FD38610AE000F054FD15
:101EB40002463B69D31A41F28832934201D9032383
:101EC400D7E04B4B1B6F03F00203002BEED014E062
:101ED40000F042FD38610AE000F03EFD02463B6935
:101EE400D31A41F28832934201D90323C1E0404B13
:101EF4001B6F03F00203002BEED1FB7D012B05D1F8
:101F04003B4B1B6C3A4A23F0805313647B689B69F8
:101F1400002B00F0AD80364B9B6803F00C03082BBC
:101F240060D07B689B69022B45D1334B00221A6039
:101F340000F012FD386108E000F00EFD02463B6936
:101F4400D31A022B01D9032393E0294B1B6803F016
:101F54000073002BF0D17B68DA697B681B6A1A4333
:101F64007B685B6A9B011A437B689B6A5B08013B45
:101F74001B041A437B68DB6A1B061A437B681B6BD2
:101F84001B071B4913434B601B4B01221A6000F0D3
:101F9400E3FC386108E000F0DFFC02463B69D31A39
:101FA400022B01D9032364E0114B1B6803F0007377
:101FB400002BF0D05CE0104B00221A6000F0CCFC47
:101FC400386108E000F0C8FC02463B69D31A022BD2
:101FD40001D903234DE0064B1B6803F00073002B6B
:101FE400F0D145E07B689B69012B07D1012340E0D8
:101FF4000038024000700040600047421F4B5B689D
:10200400FB607B689B69012B30D0FB6803F4800282
:102014007B68DB699A4229D1FB6803F03F027B6845
:102024001B6A9A4222D1FA6847F6C07313407A6851
:10203400526A9201934219D1FB6803F440327B68DF
:102044009B6A5B08013B1B049A420FD1FB6803F0B7
:1020540070627B68DB6A1B069A4207D1FB6803F057
:10206400E0427B681B6B1B079A4201D0012300E00E
:10207400002318461837BD4680BD00BF0038024013
:1020840080B489B000AF7860396000237B6100239D
:102094003B610023BB610023FB6165E10122FB6915
:1020A40002FA03F37B613B681B687A6913403B6166
:1020B4003A697B699A4240F054813B685B6803F05B
:1020C4000303012B05D03B685B6803F00303022B79
:1020D40030D17B689B68BB61FB695B00032202FA19
:1020E40003F3DB43BA691340BB613B68DA68FB69FD
:1020F4005B0002FA03F3BA691343BB617B68BA69F4
:102104009A607B685B68BB610122FB6902FA03F396
:10211400DB43BA691340BB613B685B681B0903F08E
:102124000102FB6902FA03F3BA691343BB617B68DA
:10213400BA695A603B685B6803F00303032B17D04A
:102144007B68DB68BB61FB695B00032202FA03F373
:10215400DB43BA691340BB613B689A68FB695B0067
:1021640002FA03F3BA691343BB617B68BA69DA60A4
:102174003B685B6803F00303022B23D1FB69DA0895
:102184007B68083253F82230BB61FB6903F0070314
:102194009B000F2202FA03F3DB43BA691340BB61CD
:1021A4003B681A69FB6903F007039B0002FA03F317
:1021B400BA691343BB61FB69DA087B680832B96901
:1021C40043F822107B681B68BB61FB695B00032238
:1021D40002FA03F3DB43BA691340BB613B685B68F3
:1021E40003F00302FB695B0002FA03F3BA691343C9
:1021F400BB617B68BA691A603B685B6803F440336F
:10220400002B00F0AE800023FB605D4B5B6C5C4AEE
:1022140043F4804353645A4B5B6C03F48043FB6088
:10222400FB68584AFB699B08023352F82330BB61B0
:10223400FB6903F003039B000F2202FA03F3DB4361
:10224400BA691340BB617B684F4A934225D07B68CF
:102254004E4A93421FD07B684D4A934219D07B6803
:102264004C4A934213D07B684B4A93420DD07B680F
:102274004A4A934207D07B68494A934201D10623D4
:102284000CE007230AE0052308E0042306E0032307
:1022940004E0022302E0012300E00023FA6902F0D3
:1022A400030292009340BA691343BB613549FB6949
:1022B4009B080233BA6941F823203A4B9B68BB61FF
:1022C4003B69DB43BA691340BB613B685B6803F459
:1022D4008013002B03D0BA693B691343BB61314AB5
:1022E400BB6993602F4BDB68BB613B69DB43BA6915
:1022F4001340BB613B685B6803F40013002B03D0FD
:10230400BA693B691343BB61264ABB69D360254B59
:102314005B68BB613B69DB43BA691340BB613B68E3
:102324005B6803F40033002B03D0BA693B691343A1
:10233400BB611C4ABB6953601A4B1B68BB613B6998
:10234400DB43BA691340BB613B685B6803F48033C9
:10235400002B03D0BA693B691343BB61114ABB69C3
:102364001360FB690133FB61FB690F2B7FF696AEAB
:1023740000BF00BF2437BD465DF8047B704700BF33
:1023840000380240003801400000024000040240CE
:1023940000080240000C02400010024000140240F9
:1023A40000180240003C014080B586B000AF786060
:1023B40000237B6100F0D0FA38617B68002B01D1E7
:1023C400012399E07B68022283F835207B68002290
:1023D40083F834207B681B681A687B681B6822F0CA
:1023E40001021A600FE000F0B7FA02463B69D31A03
:1023F400052B08D97B6820225A657B68032283F861
:102404003520032378E07B681B681B6803F0010315
:10241400002BE8D17B681B681B687B617A69384BA9
:1024240013407B617B685A687B689B681A437B68AE
:10243400DB681A437B681B691A437B685B691A4330
:102444007B689B691A437B68DB691A437B681B6A58
:1024540013437A6913437B617B685B6A042B07D15E
:102464007B68DA6A7B681B6B13437A6913437B616D
:102474007B681B687A691A607B681B685B697B618F
:102484007B6923F007037B617B685B6A7A6913438A
:102494007B617B685B6A042B17D17B689B6A7A69D2
:1024A40013437B617B68DB6A002B0ED0786800F0F5
:1024B4005FF80346002B08D07B6840225A657B688E
:1024C400012283F83520012316E07B681B687A69B2
:1024D4005A61786800F016F80346FB607B68DB6D90
:1024E4003F229A40FB689A607B6800225A657B68A9
:1024F400012283F83520002318461837BD4680BDD5
:102504003F8010F080B485B000AF78607B681B68B2
:10251400DBB2103B144AA2FB03231B09FB60134AE2
:10252400FB6813441B781A467B68DA65FB68032B47
:1025340009D97B681B6823F47F7323F003031A1DF6
:102544007B689A6507E07B681B6823F47F7323F03C
:1025540003037A6893657B689B6D18461437BD4600
:102564005DF8047B704700BFABAAAAAAA44A00087E
:1025740080B485B000AF78600023FB737B689B6AEE
:10258400BB607B689B69002B1FD1BB68032B56D8AB
:1025940001A252F823F000BFAD250008BF250008B2
:1025A400AD250008432600087B68DB6A03F08073CE
:1025B400002B46D00123FB7343E07B68DB6AB3F155
:1025C400C07F40D10123FB733DE07B689B69B3F579
:1025D400005F21D1BB68032B37D801A252F823F046
:1025E400F5250008FB250008F52500080D26000840
:1025F4000123FB7330E07B68DB6A03F08073002BFC
:1026040025D00123FB7322E07B68DB6AB3F1C07F32
:102614001FD10123FB731CE0BB68022B03D9BB68E9
:10262400032B03D018E00123FB7315E07B68DB6AFE
:1026340003F08073002B0ED00123FB730BE000BF6B
:102644000AE000BF08E000BF06E000BF04E000BFEE
:1026540002E000BF00E000BFFB7B18461437BD4614
:102664005DF8047B704700BF80B485B000AF78602C
:102674007B6803F00703FB600C4BDB68BB60BA6844
:102684004FF6FF031340BB60FB681A02BB68134399
:1026940043F0BF6343F40033BB60044ABB68D360B8
:1026A40000BF1437BD465DF8047B704700ED00E0C1
:1026B40080B400AF044BDB681B0A03F00703184621
:1026C400BD465DF8047B704700ED00E080B483B044
:1026D40000AF0346FB7197F90730002B0BDBFB7946
:1026E40003F01F02074997F907305B09012000FA3C
:1026F40002F241F8232000BF0C37BD465DF8047B8D
:10270400704700BF00E100E080B483B000AF03462F
:102714003960FB7197F90730002B0ADB3B68DAB2AA
:102724000C4997F907301201D2B20B4483F8002305
:102734000AE03B68DAB20849FB7903F00F03043B73
:102744001201D2B20B441A7600BF0C37BD465DF8B5
:10275400047B704700E100E000ED00E080B489B044
:1027640000AFF860B9607A60FB6803F00703FB61AF
:10277400FB69C3F10703042B28BF0423BB61FB6976
:102784000433062B02D9FB69033B00E000237B6181
:102794004FF0FF32BB6902FA03F3DA43BB681A4015
:1027A4007B699A404FF0FF317B6901FA03F3D94307
:1027B4007B680B40134318462437BD465DF8047B01
:1027C4007047000080B582B000AF78607B68013B41
:1027D400B3F1807F01D301230FE00A4A7B68013BF8
:1027E40053600F214FF0FF30FFF78EFF054B00229F
:1027F4009A60044B07221A60002318460837BD4626
:1028040080BD00BF10E000E080B582B000AF78600A
:102814007868FFF729FF00BF0837BD4680BD80B543
:1028240086B000AF0346B9607A60FB7300237B6116
:10283400FFF73EFF78617A68B9687869FFF78EFF21
:10284400024697F90F3011461846FFF75DFF00BFA7
:102854001837BD4680BD80B582B000AF0346FB711A
:1028640097F907301846FFF731FF00BF0837BD4618
:1028740080BD80B582B000AF78607868FFF7A2FFB2
:10288400034618460837BD4680BD000080B500AF3A
:102894000E4B1B680D4A43F4007313600B4B1B680B
:1028A4000A4A43F480631360084B1B68074A43F4E5
:1028B400807313600320FFF7A7FF0F2000F008F8D0
:1028C400FDF7EEFF0023184680BD00BF003C024028
:1028D40080B582B000AF7860124B1A68124B1B7837
:1028E40019464FF47A73B3FBF1F3B2FBF3F31846D2
:1028F400FFF7BFFF0346002B01D001230EE07B68E6
:102904000F2B0AD8002279684FF0FF30FFF787FFBA
:10291400064A7B681360002300E001231846083749
:10292400BD4680BD080000200400002000000020F7
:1029340080B400AF064B1B781A46064B1B68134441
:10294400044A136000BFBD465DF8047B704700BFB6
:10295400040000209000002080B400AF034B1B68EB
:102964001846BD465DF8047B704700BF9000002008
:1029740080B400AF064BD3F88830054A43F47003A3
:10298400C2F8883000BFBD465DF8047B704700BFC5
:1029940000ED00E080B582B000AF00237B600C4BFB
:1029A4001B6B0B4A43F400131363094B1B6B03F4B7
:1029B40000137B607B68002200210C20FFF72FFFAF
:1029C4000C20FFF748FF00BF0837BD4680BD00BF9D
:1029D4000038024080B500AF114B124A1A60104B08
:1029E400114A5A600E4B00229A600D4B0022DA60A5
:1029F4000B4B4FF480621A61094B04225A61084B55
:102A040000229A61064B0022DA61054800F0B4F80E
:102A14000346002B01D0FDF76DFD00BF80BD00BF54
:102A24009400002000480040A086010080B58AB0D0
:102A340000AF786007F1140300221A605A609A60AC
:102A4400DA601A617B681B68454A934240F08380D0
:102A540000233B61434B1B6C424A43F480231364C1
:102A6400404B1B6C03F480233B613B690023FB60F8
:102A74003C4B1B6B3B4A43F004031363394B1B6B06
:102A840003F00403FB60FB680023BB60354B1B6B46
:102A9400344A43F002031363324B1B6B03F002030B
:102AA400BB60BB6820237B610223BB610123FB6104
:102AB40003233B6207237B6207F1140319462A4868
:102AC400FFF7DEFA4FF480637B610223BB610123CD
:102AD400FB6103233B6207237B6207F1140319465E
:102AE4002248FFF7CDFA224B224A1A60204B4FF0BE
:102AF40000625A601E4B00229A601D4B0022DA606D
:102B04001B4B4FF480621A61194B00225A61184B17
:102B140000229A61164B4FF48072DA61144B4FF421
:102B240040321A62124B00225A621148FFF73CFCF1
:102B34000346002B01D0FDF7DDFC7B680C4ADA6309
:102B44000B4A7B689363002200212720FFF767FE6E
:102B54002720FFF780FE00BF2837BD4680BD00BF99
:102B640000480040003802400008024000040240CF
:102B7400DC0000202860024080B582B000AF78609D
:102B84007B68002B01D1012342E07B6893F841303C
:102B9400DBB2002B06D17B68002283F840207868E2
:102BA400FFF744FF7B68242283F841207B681B687D
:102BB400DA687B681B6822F40052DA60786800F0F7
:102BC4002BF87B681B681A697B681B6822F49042A7
:102BD4001A617B681B685A697B681B6822F02A02A9
:102BE4005A617B681B68DA687B681B6842F4005290
:102BF400DA607B6800225A647B68202283F84120D3
:102C04007B68202283F842207B6800225A630023D9
:102C140018460837BD4680BD2DE9B04FC0B000AF9F
:102C2400C7F8F400D7F8F4301B681B6923F440504C
:102C3400D7F8F430D968D7F8F4301A6840EA0103B9
:102C44001361D7F8F4309A68D7F8F4301B691A4343
:102C5400D7F8F4305B691A43D7F8F430DB691343CF
:102C6400C7F8F830D7F8F4301B68DB6823F4164152
:102C740021F00C01D7F8F4301A68D7F8F8300B4378
:102C8400D360D7F8F4301B685B6923F44070D7F83D
:102C9400F4309969D7F8F4301A6840EA01035361B3
:102CA400D7F8F4301A688F4B9A4205D0D7F8F4302D
:102CB4001A688D4B9A4204D1FEF786FDC7F8FC00D2
:102CC40003E0FEF76DFDC7F8FC00D7F8F430DB69CC
:102CD400B3F5004F40F00C81D7F8FC300022C7F860
:102CE400E830C7F8EC20D7E93A4522462B4691183C
:102CF400B9655B41FB65D7E91623214612EB010850
:102D0400294643EB01094FF000024FF000034FEA5C
:102D1400C90343EA58734FEAC802904699462346CA
:102D240018EB0303C7F8E0302B4649EB0303C7F85D
:102D3400E430D7F8F4305B680022C7F8D830C7F81D
:102D4400DC20D7E936120B46DB183B65134642EB11
:102D540003037B65D7E91423D7E93801FDF70EFB9C
:102D640002460B46614BA3FB02235B091C01D7F807
:102D7400FC300022C7F8D030C7F8D420D7E9348912
:102D840042464B469118B9645B41FB64D7E9122370
:102D9400414612EB010A494643EB010B4FF0000296
:102DA4004FF000034FEACB0343EA5A734FEACA02D7
:102DB40092469B4643461AEB0303C7F8C8304B467A
:102DC4004BEB0303C7F8CC30D7F8F4305B68002230
:102DD400C7F8C030C7F8C420D7E930120B46DB1857
:102DE4003B64134642EB03037B64D7E91023D7E922
:102DF4003201FDF7C3FA02460B4611463B4BA3FBD7
:102E040001235B09642202FB03F3CB1ADB0003F109
:102E14003202364BA3FB02235B095B0003F4F87315
:102E24001C44D7F8FC300022C7F8B830C7F8BC20DF
:102E3400D7E92E8942464B469118B9635B41FB633F
:102E4400D7E90E2341465118396349464B417B6308
:102E54004FF000024FF00003D7E90CAB5946CB000A
:102E6400514643EA51735146CA0010461946034677
:102E740042469B18C7F8B0304B460A4642EB030360
:102E8400C7F8B430D7F8F4305B680022C7F8A8302C
:102E9400C7F8AC20D7E92A120B46DB18BB621346ED
:102EA40042EB0303FB62D7E90A23D7E92C01FDF7C0
:102EB40065FA02460B460D4BA3FB02135B09642122
:102EC40001FB03F3D31ADB003233084AA2FB0323CA
:102ED4005B0903F00702D7F8F4301B6822449A60B8
:102EE40006E100BF00100140001401401F85EB51B2
:102EF400D7F8FC300022C7F8A030C7F8A420D7E9DF
:102F0400288942464B46911839625B417B62D7E976
:102F1400082341465418494643EB01054FF000028B
:102F24004FF00003EB0043EA5473E20014461D46DD
:102F34004346E318C7F898304B4645EB0303C7F8FC
:102F44009C30D7F8F4305B680022C7F89030C7F89B
:102F540094204FF000024FF00003D7E9244529469E
:102F64008B00214643EA917321468A00D7E9260162
:102F7400FDF704FA02460B46604BA3FB02235B09F0
:102F84001C01D7F8FC300022C7F88830C7F88C2021
:102F9400D7E9228942464B469118B9615B41FB61EE
:102FA400D7E9062341465118396149464B417B61B3
:102FB4004FF000024FF00003D7E904AB5946CB00B1
:102FC400514643EA51735146CA0010461946034616
:102FD40042469B18C7F880304B460A4642EB03032F
:102FE400C7F88430D7F8F4305B680022BB67FA670F
:102FF4004FF000024FF00003D7E91E8949468B00C9
:10300400414643EA917341468A00D7E92001FDF71E
:10301400B5F902460B461146384BA3FB01235B0965
:10302400642202FB03F3CB1A1B013233334AA2FBA3
:1030340003235B0903F0F0031C44D7F8FC3000229F
:103044003B677A67D7E91C8942464B469118B960B9
:103054005B41FB60D7E90223414651183960494678
:103064004B417B604FF000024FF00003D7E900AB07
:103074005946CB00514643EA51735146CA001046A3
:103084001946034642469B18BB664B460A4642EB2A
:103094000303FB66D7F8F4305B6800223B667A666C
:1030A4004FF000024FF00003D7E9188949468B001E
:1030B400414643EA917341468A00D7E91A01FDF774
:1030C4005DF902460B460D4BA3FB02135B09642119
:1030D40001FB03F3D31A1B013233084AA2FB032377
:1030E4005B0903F00F02D7F8F4301B6822449A609E
:1030F40000BF07F58077BD46BDE8B08F1F85EB5153
:1031040080B500AF00F014F80748FDF7CBFD074881
:10311400FDF7C8FD02210448FDF7FAFF0221034828
:10312400FDF7F6FF00BF80BD3C00002064000020D6
:1031340080B58AB000AF01233B620023BB61012349
:10314400FB6100233B6000237B600023BB60002302
:10315400FB6000237B6100233B613B4619460F481B
:10316400FDF7C2FC0D48FDF79DFD02210B48FDF75C
:10317400CFFF0E237B620E237B613B461946084832
:10318400FDF7B2FC0648FDF78DFD02210448FDF76A
:10319400BFFF00BF2837BD4680BD00BF3C000020F4
:1031A4006400002080B58AB000AFF8607A603B60AC
:1031B4000B467B817B893B6100237B610023BB61E0
:1031C4000023FB613B683B6207F1100101237A682D
:1031D400F868FDF7ABFD0346002B10D007F1100192
:1031E40002237A68F868FDF7A1FD0346002B06D098
:1031F40007F1100104237A68F868FDF797FD0023AE
:1032040018462837BD4680BD80B58CB000AFF86045
:10321400B9607A6007F114027B680021F868FDF751
:1032240055FE0346002B06D17B699AB2BB681A800F
:103234007B6ADBB200E0002318463037BD4680BD10
:1032440080B582B000AF78607B68074A934201D1B1
:1032540000F08CF87B68054A934201D100F008F82D
:1032640000BF0837BD4680BD3C000020640000203C
:1032740080B400AF00BFBD465DF8047B704700001A
:1032840080B500AF6C2200211048FCF799FF6C2236
:1032940000210F48FCF794FF0C4B01221A700B4BD2
:1032A400002283F83C20094B002283F85420074B6A
:1032B400032283F86C20054B002283F8A820034BDB
:1032C400002283F8C02000BF80BD00BF3C01002065
:1032D400A801002080B582B000AF78607B6803F05D
:1032E4000103002B06D00C4B01225A700A490B48EB
:1032F40000F06CF87B6803F00203002B07D0064B48
:10330400012283F86D200649064800F05FF800BFEB
:103314000837BD4680BD00BF3C0100203C000020B2
:10332400A80100206400002080B582B000AF78605E
:103334007B6803F00103002B03D00849084800F020
:103344007AF87B6803F00203002B03D00549064892
:1033540000F071F800BF0837BD4680BD3C01002075
:103364003C000020A80100206400002080B584B047
:1033740000AF3B1D00221A605A603A1D07F10E038C
:1033840019460F4801F0D0F9FB89002B14D13B7981
:1033940003F00F03012B02D0032B06D00BE03B1DDF
:1033A4001946084800F0BDF805E03B1D19460648DB
:1033B40000F0B7F800BF00BF00BF1037BD4680BDA6
:1033C4003C0000203C010020A801002080B582B010
:1033D40000AF786039603B6893F93C30022B1BD016
:1033E400022B24DC002B02D0012B0AD01FE03B6807
:1033F40093F900309BB200221946786800F06FF907
:1034040015E03B6893F900309BB24FF48072194683
:10341400786800F064F90AE03B6893F900309BB2E5
:103424004FF400721946786800F059F900BF00BFE4
:103434000837BD4680BD80B582B000AF7860396082
:103444003B6893F93C30022B3BD0022B47DC002B2A
:1034540002D0012B22D042E03B6893F900309AB2AB
:103464003B68D3ED107A3B6893ED117A3B68D3ED5A
:10347400136A3B6893ED146A3B68D3ED125AB0EEBD
:10348400652AF0EE461AB0EE661AF0EE470AB0EE80
:10349400670A1146786800F049F920E03B6893F91F
:1034A40000309AB23B68D3ED107A3B6893ED117A01
:1034B400F0EE470AB0EE670A1146786800F0C6F9E4
:1034C4000DE03B6893F900309AB23B68D3ED117A72
:1034D400B0EE670A1146786800F0EDF900BF00BF4E
:1034E4000837BD4680BD80B483B000AF78607B6888
:1034F4009A6E7B681A657B685A6E7B68DA647B68AF
:103504009A6D7B681A647B68DA6D7B685A647B68A1
:103514001A6E7B689A6400BF0C37BD465DF8047B65
:10352400704780B582B000AF786039603B681B7823
:1035340003F00F027B685A603B681B781B09DBB2FF
:103544001A467B689A603B6801331B781B023A6811
:10355400023212781A437B68DA603B6803331B78C3
:103564001B013A68043212781209D2B21A437B68FA
:103574001A613B6804331B781B0203F470633A68D6
:10358400053212781A437B685A617B68DB68102124
:10359400F2EE090ABAEE090A184600F06EF8F0EEE7
:1035A400407A7B68C3ED087A7B681B690C21F3EED3
:1035B4000E0ABBEE0E0A184600F05FF8F0EE407AF1
:1035C4007B68C3ED097A7B685B690C21F2EE040A1F
:1035D400BAEE040A184600F050F8F0EE407A7B6820
:1035E400C3ED0A7A3B6806331B7807EE903AF8EE8F
:1035F400677A7B68C3ED0D7A3B6807331B7807EE67
:10360400903AF8EE677A7B68C3ED0E7A00BF08370C
:10361400BD4680BD80B487B000AF87ED030AC7ED17
:10362400020A87ED011A386097ED017AD7ED027A24
:1036340077EE677AC7ED057ABB683B6197ED037A4D
:10364400D7ED047A37EE677A01223B6802FA03F376
:10365400013B07EE903AF8EEE77A67EE276A97EDBA
:10366400057AC6EE877AFDEEE77A17EE903A1846A9
:103674001C37BD465DF8047B704780B487B000AF4B
:10368400F86087ED020AC7ED010A396097ED017A07
:10369400D7ED027A77EE677AC7ED057ABB683B61AE
:1036A400FB6807EE903AB8EEE77AD7ED057A67EE55
:1036B400276A01223B6802FA03F3013B07EE903AC2
:1036C400F8EEE77A86EEA77AD7ED047A77EE277AD2
:1036D400B0EE670A1C37BD465DF8047B704780B5C1
:1036E40086B000AF78600B467B8013463B807A88B7
:1036F4003B881344FB82FF233B73FF237B73FF232D
:10370400BB73FF23FB73FF233B74FF237B74FF23F3
:10371400BB74FC23FB7407F10C02F98A0823786854
:1037240000F0F0FF00BF1837BD4680BD80B58EB0F5
:1037340000AFF8610B4687ED050AC7ED040A87ED73
:10374400031AC7ED021A87ED012A7B837B8BFB8664
:103754001020B2EE091AFAEE090A97ED050AFFF7EE
:1037640059FF0346BB860C20B3EE0E1AFBEE0E0A7D
:1037740097ED040AFFF74EFF03467B860C209FED6E
:10378400311ADFED310A97ED030AFFF743FF0346D1
:103794003B860C20B1EE041ADFED2B0A97ED020AEA
:1037A400FFF738FF0346FB850C20B2EE041AFAEE4D
:1037B400040A97ED010AFFF72DFF0346BB85BB8E74
:1037C4001B0A9BB2DBB287F82430BB8EDBB287F8CE
:1037D40025307B8E1B099BB2DBB287F826307B8EAB
:1037E4005BB21B015AB23B8E1B0A9BB25BB2134302
:1037F4005BB2DBB287F827303B8EDBB287F8283028
:10380400FB8D1B099BB2DBB287F82930FB8D5BB2C1
:103814001B015AB2BB8D1B0A9BB25BB213435BB252
:10382400DBB287F82A30BB8DDBB287F82B3007F187
:103834002402F98E0823F86900F064FF00BF3837CA
:10384400BD4680BD0000FA430000000080B58AB088
:1038540000AFF8600B4687ED010AC7ED000A7B81D3
:103864007B8903F58073FB843B1D3B623B46FB6114
:103874003B6A1B783B753B6A5B787B753B6A9B783C
:10388400BB753B6ADB78FB75FB691B783B76FB6990
:103894005B787B76FB699B78BB76FB69DB78FB7690
:1038A40007F11402F98C0823F86800F02BFF00BF1D
:1038B4002837BD4680BD80B588B000AFF8600B46A0
:1038C40087ED010A7B817B8903F50073FB833B1D34
:1038D400BB61BB691B783B75BB695B787B75BB6956
:1038E4009B78BB75BB69DB78FB7507F11402F98B18
:1038F4000423F86800F006FF00BF2037BD4680BDF2
:1039040080B485B000AFF860B9601346FB80274BE4
:103914001B685A69254B1B6842F040025A61234BCD
:103924001B68DA68214B1B6842F01002DA60204BF6
:103934001B681A681E4B1B6822F001021A6007E01C
:103944001B4B1B681A681A4B1B6822F001021A6091
:10395400174B1B681B6803F00103002BF0D1144BB9
:103964001B68144A9A60124B1B68FA68DA60104BA1
:103974001B68BA681A610E4B1B68FA885A600C4BB4
:103984001B681A680A4B1B6842F480221A60084BB1
:103994001B681A68064B1B6842F001021A6000BFDC
:1039A4001437BD465DF8047B704700BF94000020C7
:1039B400DC0000200448004080B500AF32220349F7
:1039C4000348FFF79DFF00BF80BD00BF46020020F3
:1039D4001402002080B483B000AF786039603B6883
:1039E4001B780F2B40F0CB813B6818331B78002BDE
:1039F40040F0C5813B6801331B781AB23B6802333F
:103A04001B781BB21B021BB213431BB29BB2C3F342
:103A14000A039BB2A3F580639BB21AB27B681A8037
:103A24003B6802331B78DB08DBB21AB23B68033312
:103A34001B781BB25B011BB213431BB29BB2C3F3D3
:103A44000A039BB2A3F580639BB21AB27B685A80C7
:103A54003B6803331B789B09DBB21AB23B6804331F
:103A64001B781BB29B001BB213431AB23B6805338D
:103A74001B781BB29B021BB213431BB29BB2C3F352
:103A84000A039BB2A3F580639BB21AB27B689A8047
:103A94003B6805331B785B08DBB21AB23B6806331C
:103AA4001B781BB2DB011BB213431BB29BB2C3F3E3
:103AB4000A039BB2A3F580639BB21AB27B68DA80D7
:103AC4003B6806331B781B09DBB21AB23B68073329
:103AD4001B781BB21B011BB213431BB29BB2C3F373
:103AE4000A039BB2A3F580639BB21AB27B681A8166
:103AF4003B6807331B78DB09DBB21AB23B68083337
:103B04001B781BB25B001BB213431AB23B68093328
:103B14001B781BB25B021BB213431BB29BB2C3F3F1
:103B24000A039BB2A3F580639BB21AB27B685A81E5
:103B34003B6809331B789B08DBB25AB23B680A33F3
:103B44001B785BB29B015BB213435BB2DAB27B6856
:103B54001A737B681B7BF02B06D0F02B10DC002B38
:103B640006D00F2B08D00BE07B6801221A730AE001
:103B74007B6802221A7306E07B6803221A7302E050
:103B84007B6801221A733B680A331B785B09DBB23A
:103B94005AB23B680B331B785BB2DB005BB2134356
:103BA4005BB2DAB27B685A737B685B7BF02B06D01E
:103BB400F02B10DC002B06D00F2B08D00BE07B6819
:103BC40001225A730AE07B6802225A7306E07B687A
:103BD40003225A7302E07B6801225A733B681A7B02
:103BE4007B689A737B689B7BF02B06D0F02B10DCF0
:103BF400002B06D00F2B08D00BE07B6801229A73B0
:103C04000AE07B6802229A7306E07B6803229A73B7
:103C140002E07B6801229A733B680D331B78DB0852
:103C2400DBB25AB23B680E331B785BB25B015BB20A
:103C340013435BB2DAB27B68DA737B68DB7BF02B0D
:103C440006D0F02B10DC002B06D00F2B08D00BE095
:103C54007B680122DA730AE07B680222DA7306E0E9
:103C64007B680322DA7302E07B680122DA733B6823
:103C74000E331B789B09DBB21AB23B680F331B78F7
:103C84001BB29B001BB213431AB23B6810331B7860
:103C94001BB29B021BB213431BB29BB2C3F30A03B6
:103CA4009AB23A4B9A823B6810331B785B08DBB2BA
:103CB4001AB23B6811331B781BB2DB011BB21343EE
:103CC4001BB29BB2C3F30A039AB2304BDA823B684D
:103CD40011331B781B09DBB21AB23B6812331B7811
:103CE4001BB21B011BB213431BB29BB2C3F30A03E7
:103CF4009AB2264B1A833B6812331B78DB09DBB27A
:103D04001AB23B6813331B781BB25B001BB213431C
:103D14001AB23B6814331B781BB25B021BB2134309
:103D24001BB29BB2C3F30A039AB2184B5A833B6883
:103D340014331B789B08DBB21AB23B6815331B782B
:103D44001BB29B011BB213431BB29BB2C3F30A0306
:103D54009AB20E4B9A833B6815331B785B09DBB22E
:103D64001AB23B6816331B781BB2DB001BB2134339
:103D74001BB29BB2C3F30A039AB2044BDA8300BFAB
:103D84000C37BD465DF8047B704700BF7802002005
:103D940080B485B000AF0346FB710023FB81FB793F
:103DA400042B01D900232CE072B600BFFB79042B4D
:103DB40020D801A252F823F0D13D0008D93D0008D3
:103DC400E13D0008E93D0008F13D0008104B1B8867
:103DD400FB8112E00E4B5B88FB810EE00C4B9B8851
:103DE400FB810AE00A4BDB88FB8106E0084B1B8958
:103DF400FB8102E00023FB8100BF62B600BFB7F97C
:103E04000E3018461437BD465DF8047B704700BF7A
:103E14009C02002080B582B000AF444B1B681B6835
:103E240003F02003002B0BD000237B603F4B1B6867
:103E34001B687B603D4B1B685B687B607B6870E044
:103E44003B4B1B6803F01003002B6AD000233B603C
:103E5400364B1B681B683B60344B1B685B683B60DC
:103E64003B68344B1B681B6803F40023002B2DD1E3
:103E7400304B1B681A682F4B1B6822F001021A6032
:103E84002C4B1B685B689BB2C3F132039AB22A4B7A
:103E94001A80284B1B6832225A60264B1B681A680A
:103EA400244B1B6842F400221A60224B1B681A68D8
:103EB400204B1B6842F001021A601F4B1B88192B10
:103EC4002FD11E491E48FFF785FD2AE0194B1B68B8
:103ED4001A68184B1B6822F001021A60154B1B6804
:103EE4005B689BB2C3F132039AB2134B1A80114B35
:103EF4001B6832225A60134B1B68124A23F40023B6
:103F040013600C4B1B681A680A4B1B6842F00102D1
:103F14001A60094B1B88192B03D10B490848FFF77A
:103F240059FD00BF0837BD4680BD00BF9400002086
:103F340000480040DC000020AC02002014020020F5
:103F44009C020020286002404602002080B400AF9A
:103F540001231846BD465DF8047B704780B582B0E6
:103F640000AF184B1B68184AA2FB03239B09184691
:103F7400FEF77FFC0346002B02D04FF0FF331CE01A
:103F840000237B6015E011497A6813465B001344F3
:103F9400DB000B4400221A600C497A6813465B006C
:103FA4001344DB000B440C3300221A707B6801338A
:103FB4007B607B68072BE6DD002318460837BD4687
:103FC40080BD00BF08000020D34D6210B402002061
:103FD40080B487B000AFF860B9607A6072B600BF91
:103FE4003D4B1B78072B04D962B600BF4FF0FF335B
:103FF4006CE0FB68002B02D0BB68002B04D162B6D6
:1040040000BF6FF0010361E00023FB750CE0FA7D53
:10401400324913465B001344DB000B441B68002B3E
:1040240006D0FB7D0133FB75FB7D072BEFD900E048
:1040340000BFFB7D072B04D962B600BF6FF00203FB
:1040440044E0FA7D254913465B001344DB000B442E
:10405400FA681A60FA7D214913465B001344DB00B9
:104064000B440433BA681A60FA7D1D4B19681B4867
:1040740013465B001344DB00034408331960FA7DE4
:10408400164913465B001344DB000B440C33012236
:104094001A70FA7D114913465B001344DB000B448C
:1040A400103300221A60FA7D0C4913465B00134456
:1040B400DB000B4414337A681A60074B1B78013316
:1040C400DAB2054B1A7062B600BF002318461C37DB
:1040D400BD465DF8047B704774030020B4020020E1
:1040E400B002002080B582B000AF374B1A68374B5E
:1040F4001B689A4201D1002361E0334B1B68334AA9
:1041040013600023FB7156E0FA79314913465B00D2
:104114001344DB000B441B68002B49D0FA792C496B
:1041240013465B001344DB000B440C331B78002B59
:104134003ED0254B1968FA79254813465B00134491
:10414400DB00034408331B68CB1A3B60FA7920492F
:1041540013465B001344DB000B4404331B683A68CA
:104164009A4225D3FA79184B1968194813465B000B
:104174001344DB00034408331960FA7914491346E5
:104184005B001344DB000B4410331B68591C1048BC
:1041940013465B001344DB00034410331960FA79BF
:1041A4000B4913465B001344DB000B441B68984720
:1041B400FB790133FB71FB79072BA5D90023184642
:1041C4000837BD4680BD00BFB00200207803002040
:1041D400B402002080B500AFFFF7C0FE0A4A0121F7
:1041E4000A48FFF7F5FE0A4A05210A48FFF7F0FEE0
:1041F400094A0A210948FFF7EBFE094A64210948E4
:10420400FFF7E6FE00BF80BD5C4A00082D420008AF
:104214006C4A00083B420008804A000849420008F2
:10422400904A00085542000880B400AF00BFBD4664
:104234005DF8047B704780B500AF0320FFF774F886
:1042440000BF80BD80B500AF00F014FA00BF80BD90
:1042540080B400AF00BFBD465DF8047B704700002A
:1042640080B487B000AF87ED050AC7ED040A87ED77
:10427400031AC7ED021A87ED012A97ED037AD7EDE9
:10428400047A77EE677AF0EEE77A9FED197AF4EE26
:10429400C77AF1EE10FA0AD597ED027AD7ED017AD2
:1042A40077EE277AB6EE007A67EE877A19E097ED13
:1042B400057AD7ED047A37EE677AD7ED016AD7ED40
:1042C400027A76EEE77A67EE276A97ED037AD7EDFE
:1042D400047A77EE677A86EEA77AD7ED027A77EEDC
:1042E400277AB0EE670A1C37BD465DF8047B704739
:1042F40017B7D13880B483B000AF03460A46FB71C8
:104304001346BB71054AFB791370044ABB79537099
:1043140000BF0C37BD465DF8047B70470C000020DD
:1043240080B485B000AF87ED030AC7ED020A87EDBC
:10433400011AC7ED001A094AFB681360074ABB68F3
:104344005360064A7B689360044A3B68D36000BFAD
:104354001437BD465DF8047B704700BF1000002091
:1043640090B58BB000AF78604FF00003FB606E4BEC
:104374003B6100233B756D4B1B781846FFF708FD26
:104384000346FB84694B5B781846FFF701FD03463F
:10439400BB844FF47C437B844FF480633B8432239F
:1043A400FB83B7F92630002BB8BF5B429BB21A4699
:1043B400B7F91E309A4201DA0023FB84B7F924309E
:1043C400002BB8BF5B429BB21A46B7F91E309A4223
:1043D40001DA0023BB84B7F9263007EE903AF8EEF1
:1043E400E77AB7F9223007EE103AB8EEC77AB7F990
:1043F400203006EE903AF8EEE66A4D4B93ED006AF3
:104404004B4BD3ED015AB0EE652AF0EE461AB0EEEE
:10441400661AF0EE470AB0EE670AFFF721FFF0EEE6
:10442400407AC7ED037AB7F9243007EE903AF8EEF4
:10443400E77AB7F9223007EE103AB8EEC77AB7F93F
:10444400203006EE903AF8EEE66A394B93ED026AB4
:10445400374BD3ED035AB0EE652AF0EE461AB0EEB0
:10446400661AF0EE470AB0EE670AFFF7F9FEF0EEBF
:10447400407AC7ED047AD7ED037A2D4B93ED017A98
:10448400F0EE470AB0EE670AFBF73EFFB0EE407A63
:10449400274BD3ED007AF0EE670AB0EE470AFBF73C
:1044A40015FFF0EE407AC7ED037AD7ED047A204B7E
:1044B40093ED037AF0EE470AB0EE670AFBF724FFA8
:1044C400B0EE407A1A4BD3ED027AF0EE670AB0EE02
:1044D400470AFBF7FBFEF0EE407AC7ED047A154B72
:1044E400BB6197ED037AD7ED046AD7ED067A76EED1
:1044F400E77AB4EEE77AF1EE10FA07D597ED047A8D
:10450400D7ED067A77EE677AC7ED037A01233B7518
:104514007B681C4607F10C0393E8070084E8070056
:1045240078682C37BD4690BDDB0F49C00C000020D5
:10453400100000206F12833A80B500AFDFED111A2E
:104544009FED111ADFED110A9FED110AFFF7E8FE46
:1045540002210120FFF7CEFEFEF792FE0320FEF7B4
:10456400B9FE0C4B4FF000021A600A4B0A4A5A601B
:10457400084B01221A72094B064A07CA83E807004E
:1045840000BF80BD920A86BF0BBEF5BF00000000CD
:10459400920A06BF7C030020DB0FC9BF88030020FA
:1045A40080B52DED028B82B000AF2F4B93ED007AD6
:1045B4002E4BD3ED007A77EE677AC7ED017AD7ED0B
:1045C400017AF0EEE77A9FED2A7AF4EEC77AF1EEFB
:1045D40010FA12DD254B93ED008ADFED257AD7ED35
:1045E400010AB0EE670AFBF765FEF0EE407A78EE5A
:1045F400277A1E4BC3ED007A03E01B4B1B681B4A52
:104604001360194B93ED017A184BD3ED017A77EED1
:10461400677AC7ED007AD7ED007AF0EEE77A9FED7E
:10462400147AF4EEC77AF1EE10FA12DD0F4B93ED23
:10463400018ADFED0F7AD7ED000AB0EE670AFBF7C7
:1046440039FEF0EE407A78EE277A084BC3ED017A12
:1046540003E0054B5B68054A536000BF0837BD465D
:10466400BDEC028B80BD00BF7C03002088030020CA
:10467400C2B8B23D90B585B000AFFFF767FC034602
:10468400002B0DD03B1D1846FFF76AFE3B7B002B29
:1046940006D00F4B1C463B1D93E8070084E8070037
:1046A400FFF77EFF0B4B1B680B4A93650A48FEF726
:1046B4001AFF084B5B68084AC2F8C4300748FEF783
:1046C40012FF0320FEF730FE00BF1437BD4690BD35
:1046D4007C030020880300203C010020A801002066
:1046E40080B500AFFFF776FDFFF766F900F004F838
:1046F400FFF722FF00BF80BD80B500AFFEF700FDCD
:1047040000BF80BD80B584B000AFF8607A603B60C4
:104714000B467B8179893B687A68F868FEF742FD2D
:1047240000BF1037BD4680BD80B586B000AFF860CD
:10473400B9607A607A68B968F868FEF765FD03467F
:10474400FB75FB7D18461837BD4680BDDFF834D0B5
:10475400FEF70EF90C480D490D4A002302E0D45827
:10476400C4500433C4188C42F9D30A4A0A4C0023B7
:1047740001E013600432A242FBD3FBF773FDFBF7A5
:1047840037FE7047000002200000002020000020B7
:10479400D44A00082000002094030020FEE72DE9FD
:1047A400F04786468C460846089E154674461946C8
:1047B400002B40F0C2808542B2FA82F245D94AB158
:1047C400C2F1200300FA02FC2EFA03F3954043EAF7
:1047D4000C0C94404FEA154EA8B2BCFBFEF8230C17
:1047E4000EFB18CC08FB00F943EA0C43994528D981
:1047F400EB1808F1FF3704D2994502D9A8F1020752
:104804002B44A3EB0903A4B2B3FBFEFC0EFB1C3345
:104814000CFB00F044EA0344A04214D92C190CF117
:10482400FF3304D2A04202D9ACF102032C44241A6F
:1048340043EA07401EB1D440002334607360BDE8EE
:10484400F0874746DDE76346F1E792BB431B01214E
:104854004FEA154EAFB2B3FBFEFC200C0EFB1C332B
:104864000CFB07F840EA0343984562D9EB180CF1B6
:10487400FF3004D2984502D9ACF102002B44A3EBDB
:104884000803A4B2B3FBFEFC0EFB1C330CFB07F7BE
:1048940044EA0344A7424ED92C190CF1FF3304D245
:1048A400A74202D9ACF102032C44E41B43EA0040C2
:1048B400C0E7C2F1200320FA03F1954090402EFA9C
:1048C40003F303434FEA154EAFB2B1FBFEFC0EFBFC
:1048D4001C10190C0CFB07F841EA0041884504FA46
:1048E40002F422D969180CF1FF3004D2884502D9A8
:1048F400ACF102002944A1EB08019BB2B1FBFEFC20
:104904000EFB1C110CFB07F743EA01439F420ED92F
:10491400EB180CF1FF3104D29F4202D9ACF1020131
:104924002B44DB1B41EA004192E76046E3E7614622
:10493400F7E76046A3E76346B7E7834206D916B9AB
:10494400002108467BE7C6E900E0F9E7B3FA83F7FC
:104954008FB9834201D3724508D8BEEB020460EBE1
:10496400030301209C461EB9002168E73846FAE794
:10497400C6E9004CF8E7C7F1200CBB4022FA0CF45E
:104984001C432EFA0CF120FA0CF3B84001434FEA11
:1049940014490EFA07F5B3FBF9F81FFA84FE09FB74
:1049A40018300B0C08FB0EFA43EA00439A4502FA4E
:1049B40007F240D9E31808F1FF3004D29A4502D92E
:1049C400A8F102002344A3EB0A0389B2B3FBF9F86C
:1049D40009FB183308FB0EFE41EA03418E452CD92E
:1049E400611808F1FF3304D28E4502D9A8F10203FD
:1049F400214443EA0040A0FB0298A1EB0E0141458B
:104A0400CE46434602D306D14D4504D2B9EB020E3D
:104A140068EB04030138002EA6D0B5EB0E0261EB5F
:104A2400030101FA0CFC22FA07F34CEA0303F940F0
:104A3400C6E9003198E74046C5E74346D9E7000098
:104A4400F8B500BFF8BC08BC9E467047F8B500BF77
:084A5400F8BC08BC9E46704747
:104A5C00316D732046617374204C6F6F70000000D1
:104A6C00356D7320436F6E74726F6C204C6F6F706A
:104A7C000000000031306D732041726D2055706460
:104A8C00617465003130306D732044656275672048
:104A9C004F75747075740000000610160006101621
:104AAC0000000000000000000102030406070809D2
:084ABC000000000001020304E8
:084AC400DEFCFF7F0100000091
:044ACC00D903000802
:044AD000B503000822
:104AD40010000000010000000024F40002010000A6
:104AE400920A06BF000000000BBEF5BF920A86BF03
:040000050800475157
:00000001FF
